Microchip MPLAB XC8 Compiler V2.00 ()

Linker command line:

-W-3 --edf=C:\Program Files (x86)\Microchip\xc8\v2.00\pic\dat\en_msgs.txt \
  -cs -h+dist/default/production\ds3231_eeprom_uart.X.production.sym \
  --cmf=dist/default/production\ds3231_eeprom_uart.X.production.cmf -z \
  -Q18F2550 -oC:\Users\ANDRS~1\AppData\Local\Temp\s95k.2 \
  --defsym=__MPLAB_BUILD=1 \
  -Mdist/default/production/ds3231_eeprom_uart.X.production.map -E1 \
  -ver=XC8 --acfsm=1493 -ASTACK=02FAh-07ffh -pstack=STACK -ACODE=00h-07FFFh \
  -ACONST=00h-07FFFh -ASMALLCONST=0800h-08FFhx120 \
  -AMEDIUMCONST=0800h-07FFFh -ACOMRAM=01h-05Fh -AABS1=00h-07FFh \
  -ABIGRAM=01h-07FFh -ARAM=060h-0FFh,0100h-01FFhx7 -ABANK0=060h-0FFh \
  -ABANK1=0100h-01FFh -ABANK2=0200h-02FFh -ABANK3=0300h-03FFh \
  -ABANK4=0400h-04FFh -ABANK5=0500h-05FFh -ABANK6=0600h-06FFh \
  -ABANK7=0700h-07FFh -ASFR=0F60h-0FFFh \
  -preset_vec=00h,intcode=08h,intcodelo,powerup,init -pramtop=0800h \
  -psmallconst=SMALLCONST -pmediumconst=MEDIUMCONST -pconst=CONST \
  -AFARRAM=00h-00h -ACONFIG=0300000h-030000Dh -pconfig=CONFIG \
  -AIDLOC=0200000h-0200007h -pidloc=IDLOC -AEEDATA=0F00000h-0F000FFh \
  -peeprom_data=EEDATA \
  -prdata=COMRAM,nvrram=COMRAM,nvbit=COMRAM,rbss=COMRAM,rbit=COMRAM \
  -pfarbss=FARRAM,fardata=FARRAM,nvFARRAM=FARRAM \
  -pintsave_regs=BIGRAM,bigbss=BIGRAM,bigdata=BIGRAM -pbss=RAM \
  -pidata=CODE,irdata=CODE,ibigdata=CODE,ifardata=CODE -prparam=COMRAM \
  C:\Users\ANDRS~1\AppData\Local\Temp\s95k.o \
  dist/default/production\ds3231_eeprom_uart.X.production.o 

Object code version is 3.11

Machine type is 18F2550

Call graph: (short form)




                Name                               Link     Load   Length Selector   Space Scale
C:\Users\ANDRS~1\AppData\Local\Temp\s95k.o
                init                                  E        E        4        4       0
                reset_vec                             0        0        4        0       0
                idloc                            200000   200000        8   200000       0
                config                           300000   300000        E   300000       0
dist/default/production\ds3231_eeprom_uart.X.production.o
                intcode                               8        8        6        4       0
                temp                                 5B       5B        1        1       1
                smallconst                          800      800       4E      400       0
                text59                             2CCA     2CCA       1A      427       0
                text58                             2CB0     2CB0       1A      427       0
                text57                             2B7A     2B7A       20      427       0
                text56                             2C2C     2C2C       1C      427       0
                text55                             2BD6     2BD6       1E      427       0
                text54                             2C96     2C96       1A      427       0
                text53                             2B38     2B38       22      427       0
                text52                             2ACA     2ACA       2A      427       0
                text51                             2982     2982       3C      427       0
                text50                             2746     2746       5A      427       0
                text49                             1306     1306      208      427       0
                text48                             1F06     1F06       D8      427       0
                text47                             1C60     1C60       EC      427       0
                text46                             1688     1688      176      427       0
                text45                             2150     2150       A6      427       0
                text44                             29F8     29F8       3A      427       0
                intcode_body                       228C     228C       8C      427       0
                text42                             2CF6     2CF6        E      427       0
                text41                             2C7C     2C7C       1A      427       0
                text40                             2C62     2C62       1A      427       0
                text39                             2B16     2B16       22      427       0
                text38                             2C10     2C10       1C      427       0
                text37                             2BB8     2BB8       1E      427       0
                text36                             2C48     2C48       1A      427       0
                text35                             2AF4     2AF4       22      427       0
                text34                             27EE     27EE       4A      427       0
                text33                             2838     2838       48      427       0
                text32                             21F6     21F6       96      427       0
                text31                             26EA     26EA       5C      427       0
                text30                             27A0     27A0       4E      427       0
                text29                             2CE4     2CE4       12      427       0
                text28                             1D4C     1D4C       E0      427       0
                text27                             1B72     1B72       EE      427       0
                text26                             2A9E     2A9E       2C      427       0
                text25                             150E     150E      17A      427       0
                text24                              84E      84E      5C0      427       0
                text23                             2A6A     2A6A       34      427       0
                text22                             1E2C     1E2C       DA      427       0
                text21                             17FE     17FE      144      427       0
                text20                             2BF4     2BF4       1C      427       0
                text19                             2534     2534       82      427       0
                text18                             1FDE     1FDE       C4      427       0
                text17                             2B9A     2B9A       1E      427       0
                text16                             28C4     28C4       44      427       0
                text15                             2880     2880       44      427       0
                text14                             262C     262C       62      427       0
                text13                             2318     2318       8A      427       0
                text12                             2A32     2A32       38      427       0
                text11                             24AE     24AE       86      427       0
                text10                             2428     2428       86      427       0
                text9                              2B5A     2B5A       20      427       0
                text8                              29BE     29BE       3A      427       0
                text7                              1942     1942      136      427       0
                text6                              25B6     25B6       76      427       0
                text5                              2908     2908       3E      427       0
                text4                              268E     268E       5C      427       0
                text3                              10F6     10F6      210      427       0
                text2                              20A2     20A2       AE      427       0
                text1                              2946     2946       3C      427       0
                text0                               E0E      E0E      2E8      427       0
                cstackCOMRAM                          1        1       4B        1       1
                cstackBANK0                          60       60       43       60       1
                cstackBANK1                         100      100       FA      100       1
                dataBANK2                           200      200       FA      200       1
                dataBANK0                            B3       B3        7       60       1
                bssBANK0                             A3       A3       10       60       1
                dataCOMRAM                           54       54        7        1       1
                bssCOMRAM                            4C       4C        8        1       1
                cinit                              23A2     23A2       86      427       0
                idataBANK2                         1A78     1A78       FA      427       0
                idataBANK0                         2D0B     2D0B        7      427       0
                idataCOMRAM                        2D04     2D04        7      427       0

TOTAL           Name                               Link     Load   Length     Space
        CLASS   STACK          

        CLASS   CODE           
                intcode                               8        8        6         0
                init                                  E        E        4         0
                reset_vec                             0        0        4         0
                text59                             2CCA     2CCA       1A         0
                text58                             2CB0     2CB0       1A         0
                text57                             2B7A     2B7A       20         0
                text56                             2C2C     2C2C       1C         0
                text55                             2BD6     2BD6       1E         0
                text54                             2C96     2C96       1A         0
                text53                             2B38     2B38       22         0
                text52                             2ACA     2ACA       2A         0
                text51                             2982     2982       3C         0
                text50                             2746     2746       5A         0
                text49                             1306     1306      208         0
                text48                             1F06     1F06       D8         0
                text47                             1C60     1C60       EC         0
                text46                             1688     1688      176         0
                text45                             2150     2150       A6         0
                text44                             29F8     29F8       3A         0
                intcode_body                       228C     228C       8C         0
                text42                             2CF6     2CF6        E         0
                text41                             2C7C     2C7C       1A         0
                text40                             2C62     2C62       1A         0
                text39                             2B16     2B16       22         0
                text38                             2C10     2C10       1C         0
                text37                             2BB8     2BB8       1E         0
                text36                             2C48     2C48       1A         0
                text35                             2AF4     2AF4       22         0
                text34                             27EE     27EE       4A         0
                text33                             2838     2838       48         0
                text32                             21F6     21F6       96         0
                text31                             26EA     26EA       5C         0
                text30                             27A0     27A0       4E         0
                text29                             2CE4     2CE4       12         0
                text28                             1D4C     1D4C       E0         0
                text27                             1B72     1B72       EE         0
                text26                             2A9E     2A9E       2C         0
                text25                             150E     150E      17A         0
                text24                              84E      84E      5C0         0
                text23                             2A6A     2A6A       34         0
                text22                             1E2C     1E2C       DA         0
                text21                             17FE     17FE      144         0
                text20                             2BF4     2BF4       1C         0
                text19                             2534     2534       82         0
                text18                             1FDE     1FDE       C4         0
                text17                             2B9A     2B9A       1E         0
                text16                             28C4     28C4       44         0
                text15                             2880     2880       44         0
                text14                             262C     262C       62         0
                text13                             2318     2318       8A         0
                text12                             2A32     2A32       38         0
                text11                             24AE     24AE       86         0
                text10                             2428     2428       86         0
                text9                              2B5A     2B5A       20         0
                text8                              29BE     29BE       3A         0
                text7                              1942     1942      136         0
                text6                              25B6     25B6       76         0
                text5                              2908     2908       3E         0
                text4                              268E     268E       5C         0
                text3                              10F6     10F6      210         0
                text2                              20A2     20A2       AE         0
                text1                              2946     2946       3C         0
                text0                               E0E      E0E      2E8         0
                cinit                              23A2     23A2       86         0
                idataBANK2                         1A78     1A78       FA         0
                idataBANK0                         2D0B     2D0B        7         0
                idataCOMRAM                        2D04     2D04        7         0

        CLASS   CONST          

        CLASS   SMALLCONST     
                smallconst                          800      800       4E         0

        CLASS   MEDIUMCONST    

        CLASS   COMRAM         
                temp                                 5B       5B        1         1
                cstackCOMRAM                          1        1       4B         1
                dataCOMRAM                           54       54        7         1
                bssCOMRAM                            4C       4C        8         1

        CLASS   ABS1           

        CLASS   BIGRAM         

        CLASS   RAM            

        CLASS   BANK0          
                cstackBANK0                          60       60       43         1
                dataBANK0                            B3       B3        7         1
                bssBANK0                             A3       A3       10         1

        CLASS   BANK1          
                cstackBANK1                         100      100       FA         1

        CLASS   BANK2          
                dataBANK2                           200      200       FA         1

        CLASS   BANK3          

        CLASS   BANK4          

        CLASS   BANK5          

        CLASS   BANK6          

        CLASS   BANK7          

        CLASS   SFR            

        CLASS   FARRAM         

        CLASS   CONFIG         
                config                           300000   300000        E         0

        CLASS   IDLOC          
                idloc                            200000   200000        8         0

        CLASS   EEDATA         



SEGMENTS        Name                           Load    Length   Top    Selector   Space  Class

                reset_vec                      000000  000004  000004         0       0  CODE    
                cstackCOMRAM                   000001  00005B  00005C         1       1  COMRAM  
                intcode                        000008  00000A  000012         4       0  CODE    
                cstackBANK0                    000060  00005A  0000BA        60       1  BANK0   
                cstackBANK1                    000100  0000FA  0001FA       100       1  BANK1   
                dataBANK2                      000200  0000FA  0002FA       200       1  BANK2   
                smallconst                     000800  00004E  00084E       400       0  SMALLCON
                text24                         00084E  0024C4  002D12       427       0  CODE    
                idloc                          200000  000008  200008    200000       0  IDLOC   
                config                         300000  00000E  30000E    300000       0  CONFIG  


UNUSED ADDRESS RANGES

        Name                Unused          Largest block    Delta
        BANK0            0000BA-0000FF               46
        BANK1            0001FA-0001FF                6
        BANK2            0002FA-0002FF                6
        BANK3            000300-0003FF              100
        BANK4            000400-0004FF              100
        BANK5            000500-0005FF              100
        BANK6            000600-0006FF              100
        BANK7            000700-0007FF              100
        BIGRAM           00005C-00005F                4
                         0000BA-0000FF               46
                         0001FA-0001FF                6
                         0002FA-0007FF              506
        CODE             000004-000007                4
                         000012-0007FF              7EE
                         002D12-007FFF             52EE
        COMRAM           00005C-00005F                4
        CONST            000004-000007                4
                         000012-0007FF              7EE
                         002D12-007FFF             52EE
        EEDATA           F00000-F000FF              100
        MEDIUMCONST      002D12-007FFF             52EE
        RAM              0000BA-0000FF               46
                         0001FA-0001FF                6
                         0002FA-0007FF              100
        SFR              000F60-000FFF               A0
        SMALLCONST       002D12-007FFF              100
        STACK            0002FA-0007FF              506

                                  Symbol Table

?_Cambio_Dia                           cstackBANK0  000066
?_Cambio_de_Mes                        cstackBANK0  000066
?_Crear_Cadena                         cstackBANK0  000075
?_Decena_Dia_Actual                    cstackBANK0  000061
?_Dia_Actual                           cstackBANK0  000076
?_Unidad_Dia_Actual                    cstackBANK0  000061
?___aldiv                              cstackBANK0  000060
?___awdiv                              cstackBANK0  000060
?___awmod                              cstackBANK0  000068
?___wmul                               cstackBANK0  000060
?_atoi                                 cstackBANK0  000067
?_isdigit                              cstackBANK0  000060
?_isspace                              cstackBANK0  000060
?_memoria_segun_dias                   cstackBANK0  00009B
?i2_Dia_Actual                         cstackCOMRAM 000017
?i2___awdiv                            cstackCOMRAM 000001
?i2___wmul                             cstackCOMRAM 000001
?i2_atoi                               cstackCOMRAM 000008
?i2_isdigit                            cstackCOMRAM 000001
?i2_isspace                            cstackCOMRAM 000001
?i2_memoria_segun_dias                 cstackCOMRAM 00003C
Cambio_Dia@Decena_Dia_Ayer_int         cstackBANK0  000068
Cambio_Dia@Decena_Dia_Hoy_int          cstackBANK0  00006A
Cambio_Dia@Unidad_Dia_Ayer_int         cstackBANK0  000066
Cambio_Dia@Unidad_Dia_Hoy_int          cstackBANK0  00006E
Cambio_Dia@cambio_dia                  cstackBANK0  00006C
Cambio_de_Mes@Dia_Ayer_int             cstackBANK0  000066
Cambio_de_Mes@Dia_Hoy_int              cstackBANK0  000069
Cambio_de_Mes@cambio_mes               cstackBANK0  00006B
Crear_Cadena@F3837                     dataBANK2    000200
Crear_Cadena@cadena0                   cstackBANK1  000100
Crear_Cadena@cadena1                   cstackBANK0  000078
Crear_Cadena@r                         cstackBANK0  00008E
Crear_Cadena@x                         cstackBANK0  00008C
Decena_Dia_Actual@decena_dia           cstackBANK0  000064
Dia_Actual@cadena0_dia                 cstackBANK0  000089
Dia_Actual@cadena1_dia                 cstackBANK0  000079
Dia_Actual@dia_int                     cstackBANK0  000099
EEPROM_Guardar@data                    cstackBANK0  000068
EEPROM_Guardar@dir                     cstackBANK0  000066
EEPROM_Lectura@dir                     cstackBANK0  000060
Guardar_Datos@Pot_acumulada_dia_int    cstackBANK0  00006E
Guardar_Datos@Pot_acumulada_dia_ls_int cstackBANK0  000073
Guardar_Datos@Pot_acumulada_dia_ms_int cstackBANK0  000072
Guardar_Datos@address_diaria           cstackBANK0  000076
Guardar_Datos@address_int              cstackBANK0  000070
Guardar_Datos@digito                   cstackBANK0  000074
I2C_Tx@data                            cstackBANK0  000060
LCD_Comando@cmd                        cstackBANK0  000061
LCD_Data@data                          cstackBANK0  000061
LCD_XY@x                               cstackBANK0  000062
LCD_XY@y                               cstackBANK0  000064
Limpiar_EEPROM@address                 cstackBANK0  000069
USART_Cadena@str                       cstackBANK0  000090
USART_Init@BAUD                        cstackBANK0  00006E
USART_Tx@data                          cstackBANK0  000060
Unidad_Dia_Actual@unidad_dia           cstackBANK0  000064
_Activamos_INT2                        text42       002CF6
_Apagar_Alarma                         text38       002C10
_Cambio_Dia                            text32       0021F6
_Cambio_de_Mes                         text31       0026EA
_Configurar_Alarma                     text30       0027A0
_Crear_Cadena                          text24       00084E
_Decena_Dia_Actual                     text34       0027EE
_Dia_Actual                            text2        0020A2
_EEADR                                 (abs)        000FA9
_EECON1bits                            (abs)        000FA6
_EECON2                                (abs)        000FA7
_EEDATA                                (abs)        000FA8
_EEPROM_Guardar                        text23       002A6A
_EEPROM_Lectura                        text29       002CE4
_Guardar_Datos                         text21       0017FE
_I2C_Ack                               text17       002B9A
_I2C_Init                              text20       002BF4
_I2C_Nack                              text37       002BB8
_I2C_Restart                           text36       002C48
_I2C_Rx                                text35       002AF4
_I2C_Start                             text41       002C7C
_I2C_Stop                              text40       002C62
_I2C_Tx                                text39       002B16
_INT2IF                                (abs)        007F81
_INTCON2bits                           (abs)        000FF1
_INTCON3bits                           (abs)        000FF0
_INTCONbits                            (abs)        000FF2
_ISR                                   intcode      000008
_LATBbits                              (abs)        000F8A
_LCD_Comando                           text19       002534
_LCD_Data                              text13       002318
_LCD_Init                              text18       001FDE
_LCD_XY                                text12       002A32
_Leer_Fecha_Completa                   text16       0028C4
_Leer_Hora                             text15       002880
_Limpiar_EEPROM                        text14       00262C
_Mostrar_Fecha                         text11       0024AE
_Mostrar_Hora                          text10       002428
_PIR1bits                              (abs)        000F9E
_PIR2bits                              (abs)        000FA1
_PORTA                                 (abs)        000F80
_PORTCbits                             (abs)        000F82
_Pot_acumulada_dia                     bssBANK0     0000AB
_Pot_acumulada_dia_ls                  bssBANK0     0000A3
_Pot_acumulada_dia_ms                  bssBANK0     0000A5
_Pot_acumulada_total                   bssCOMRAM    000052
_RCREG                                 (abs)        000FAE
_RCSTAbits                             (abs)        000FAB
_SPBRG                                 (abs)        000FAF
_SSPADD                                (abs)        000FC8
_SSPBUF                                (abs)        000FC9
_SSPCON1bits                           (abs)        000FC6
_SSPCON2                               (abs)        000FC5
_SSPCON2bits                           (abs)        000FC5
_SSPSTATbits                           (abs)        000FC7
_TRISA                                 (abs)        000F92
_TRISBbits                             (abs)        000F93
_TRISCbits                             (abs)        000F94
_TXREG                                 (abs)        000FAD
_TXSTAbits                             (abs)        000FAC
_USART_Cadena                          text8        0029BE
_USART_Init                            text6        0025B6
_USART_Init$1983                       cstackBANK0  000072
_USART_Tx                              text9        002B5A
_Unidad_Dia_Actual                     text33       002838
__CFG_BOR$OFF                          (abs)        000000
__CFG_BORV$3                           (abs)        000000
__CFG_CCP2MX$ON                        (abs)        000000
__CFG_CP0$OFF                          (abs)        000000
__CFG_CP1$OFF                          (abs)        000000
__CFG_CP2$OFF                          (abs)        000000
__CFG_CP3$OFF                          (abs)        000000
__CFG_CPB$OFF                          (abs)        000000
__CFG_CPD$OFF                          (abs)        000000
__CFG_CPUDIV$OSC1_PLL2                 (abs)        000000
__CFG_EBTR0$OFF                        (abs)        000000
__CFG_EBTR1$OFF                        (abs)        000000
__CFG_EBTR2$OFF                        (abs)        000000
__CFG_EBTR3$OFF                        (abs)        000000
__CFG_EBTRB$OFF                        (abs)        000000
__CFG_FCMEN$OFF                        (abs)        000000
__CFG_FOSC$HSPLL_HS                    (abs)        000000
__CFG_IESO$OFF                         (abs)        000000
__CFG_LPT1OSC$OFF                      (abs)        000000
__CFG_LVP$OFF                          (abs)        000000
__CFG_MCLRE$ON                         (abs)        000000
__CFG_PBADEN$OFF                       (abs)        000000
__CFG_PLLDIV$4                         (abs)        000000
__CFG_PWRT$OFF                         (abs)        000000
__CFG_STVREN$ON                        (abs)        000000
__CFG_USBDIV$1                         (abs)        000000
__CFG_VREGEN$OFF                       (abs)        000000
__CFG_WDT$OFF                          (abs)        000000
__CFG_WDTPS$32768                      (abs)        000000
__CFG_WRT0$OFF                         (abs)        000000
__CFG_WRT1$OFF                         (abs)        000000
__CFG_WRT2$OFF                         (abs)        000000
__CFG_WRT3$OFF                         (abs)        000000
__CFG_WRTB$OFF                         (abs)        000000
__CFG_WRTC$OFF                         (abs)        000000
__CFG_WRTD$OFF                         (abs)        000000
__CFG_XINST$OFF                        (abs)        000000
__HRAM                                 (abs)        000000
__Habs1                                abs1         000000
__Hbank0                               bank0        000000
__Hbank1                               bank1        000000
__Hbank2                               bank2        000000
__Hbank3                               bank3        000000
__Hbank4                               bank4        000000
__Hbank5                               bank5        000000
__Hbank6                               bank6        000000
__Hbank7                               bank7        000000
__Hbigbss                              bigbss       000000
__Hbigdata                             bigdata      000000
__Hbigram                              bigram       000000
__Hbss                                 bss          000000
__HbssBANK0                            bssBANK0     000000
__HbssCOMRAM                           bssCOMRAM    000000
__Hcinit                               cinit        000000
__Hclrtext                             clrtext      000000
__Hcomram                              comram       000000
__Hconfig                              config       30000E
__Hconst                               const        000000
__HcstackBANK0                         cstackBANK0  000000
__HcstackBANK1                         cstackBANK1  000000
__HcstackCOMRAM                        cstackCOMRAM 000000
__Hdata                                data         000000
__HdataBANK0                           dataBANK0    000000
__HdataBANK2                           dataBANK2    000000
__HdataCOMRAM                          dataCOMRAM   000000
__Heeprom_data                         eeprom_data  000000
__Hfarbss                              farbss       000000
__Hfardata                             fardata      000000
__Hibigdata                            ibigdata     000000
__Hidata                               idata        000000
__HidataBANK0                          idataBANK0   000000
__HidataBANK2                          idataBANK2   000000
__HidataCOMRAM                         idataCOMRAM  000000
__Hidloc                               idloc        200008
__Hifardata                            ifardata     000000
__Hinit                                init         000012
__Hintcode                             intcode      00000E
__Hintcode_body                        intcode_body 000000
__Hintcodelo                           intcodelo    00000E
__Hintentry                            intentry     000000
__Hintret                              intret       000000
__Hintsave_regs                        intsave_regs 000000
__Hirdata                              irdata       000000
__Hmediumconst                         mediumconst  000000
__HnvFARRAM                            nvFARRAM     000000
__Hnvbit                               nvbit        000000
__Hnvrram                              nvrram       000000
__Hparam                               rparam       000000
__Hpowerup                             powerup      00000E
__Hram                                 ram          000000
__Hramtop                              ramtop       000800
__Hrbit                                rbit         000000
__Hrbss                                rbss         000000
__Hrdata                               rdata        000000
__Hreset_vec                           reset_vec    000004
__Hrparam                              rparam       000000
__Hsfr                                 sfr          000000
__Hsmallconst                          smallconst   00084E
__Hspace_0                             (abs)        30000E
__Hspace_1                             (abs)        0002FA
__Hspace_2                             (abs)        000000
__Hstack                               stack        000000
__Hstruct                              struct       000000
__Htemp                                temp         00005C
__Htext                                text         000000
__Htext0                               text0        000000
__Htext1                               text1        000000
__Htext10                              text10       000000
__Htext11                              text11       000000
__Htext12                              text12       000000
__Htext13                              text13       000000
__Htext14                              text14       000000
__Htext15                              text15       000000
__Htext16                              text16       000000
__Htext17                              text17       000000
__Htext18                              text18       000000
__Htext19                              text19       000000
__Htext2                               text2        000000
__Htext20                              text20       000000
__Htext21                              text21       000000
__Htext22                              text22       000000
__Htext23                              text23       000000
__Htext24                              text24       000000
__Htext25                              text25       000000
__Htext26                              text26       000000
__Htext27                              text27       000000
__Htext28                              text28       000000
__Htext29                              text29       000000
__Htext3                               text3        000000
__Htext30                              text30       000000
__Htext31                              text31       000000
__Htext32                              text32       000000
__Htext33                              text33       000000
__Htext34                              text34       000000
__Htext35                              text35       000000
__Htext36                              text36       000000
__Htext37                              text37       000000
__Htext38                              text38       000000
__Htext39                              text39       000000
__Htext4                               text4        000000
__Htext40                              text40       000000
__Htext41                              text41       000000
__Htext42                              text42       000000
__Htext44                              text44       000000
__Htext45                              text45       000000
__Htext46                              text46       000000
__Htext47                              text47       000000
__Htext48                              text48       000000
__Htext49                              text49       000000
__Htext5                               text5        000000
__Htext50                              text50       000000
__Htext51                              text51       000000
__Htext52                              text52       000000
__Htext53                              text53       000000
__Htext54                              text54       000000
__Htext55                              text55       000000
__Htext56                              text56       000000
__Htext57                              text57       000000
__Htext58                              text58       000000
__Htext59                              text59       000000
__Htext6                               text6        000000
__Htext60                              text60       000000
__Htext7                               text7        000000
__Htext8                               text8        000000
__Htext9                               text9        000000
__LRAM                                 (abs)        000001
__Labs1                                abs1         000000
__Lbank0                               bank0        000000
__Lbank1                               bank1        000000
__Lbank2                               bank2        000000
__Lbank3                               bank3        000000
__Lbank4                               bank4        000000
__Lbank5                               bank5        000000
__Lbank6                               bank6        000000
__Lbank7                               bank7        000000
__Lbigbss                              bigbss       000000
__Lbigdata                             bigdata      000000
__Lbigram                              bigram       000000
__Lbss                                 bss          000000
__LbssBANK0                            bssBANK0     000000
__LbssCOMRAM                           bssCOMRAM    000000
__Lcinit                               cinit        000000
__Lclrtext                             clrtext      000000
__Lcomram                              comram       000000
__Lconfig                              config       300000
__Lconst                               const        000000
__LcstackBANK0                         cstackBANK0  000000
__LcstackBANK1                         cstackBANK1  000000
__LcstackCOMRAM                        cstackCOMRAM 000000
__Ldata                                data         000000
__LdataBANK0                           dataBANK0    000000
__LdataBANK2                           dataBANK2    000000
__LdataCOMRAM                          dataCOMRAM   000000
__Leeprom_data                         eeprom_data  000000
__Lfarbss                              farbss       000000
__Lfardata                             fardata      000000
__Libigdata                            ibigdata     000000
__Lidata                               idata        000000
__LidataBANK0                          idataBANK0   000000
__LidataBANK2                          idataBANK2   000000
__LidataCOMRAM                         idataCOMRAM  000000
__Lidloc                               idloc        200000
__Lifardata                            ifardata     000000
__Linit                                init         00000E
__Lintcode                             intcode      000008
__Lintcode_body                        intcode_body 000000
__Lintcodelo                           intcodelo    00000E
__Lintentry                            intentry     000000
__Lintret                              intret       000000
__Lintsave_regs                        intsave_regs 000000
__Lirdata                              irdata       000000
__Lmediumconst                         mediumconst  000000
__LnvFARRAM                            nvFARRAM     000000
__Lnvbit                               nvbit        000000
__Lnvrram                              nvrram       000000
__Lparam                               rparam       000000
__Lpowerup                             powerup      00000E
__Lram                                 ram          000000
__Lramtop                              ramtop       000800
__Lrbit                                rbit         000000
__Lrbss                                rbss         000000
__Lrdata                               rdata        000000
__Lreset_vec                           reset_vec    000000
__Lrparam                              rparam       000000
__Lsfr                                 sfr          000000
__Lsmallconst                          smallconst   000800
__Lspace_0                             (abs)        000000
__Lspace_1                             (abs)        000000
__Lspace_2                             (abs)        000000
__Lstack                               stack        000000
__Lstruct                              struct       000000
__Ltemp                                temp         00005B
__Ltext                                text         000000
__Ltext0                               text0        000000
__Ltext1                               text1        000000
__Ltext10                              text10       000000
__Ltext11                              text11       000000
__Ltext12                              text12       000000
__Ltext13                              text13       000000
__Ltext14                              text14       000000
__Ltext15                              text15       000000
__Ltext16                              text16       000000
__Ltext17                              text17       000000
__Ltext18                              text18       000000
__Ltext19                              text19       000000
__Ltext2                               text2        000000
__Ltext20                              text20       000000
__Ltext21                              text21       000000
__Ltext22                              text22       000000
__Ltext23                              text23       000000
__Ltext24                              text24       000000
__Ltext25                              text25       000000
__Ltext26                              text26       000000
__Ltext27                              text27       000000
__Ltext28                              text28       000000
__Ltext29                              text29       000000
__Ltext3                               text3        000000
__Ltext30                              text30       000000
__Ltext31                              text31       000000
__Ltext32                              text32       000000
__Ltext33                              text33       000000
__Ltext34                              text34       000000
__Ltext35                              text35       000000
__Ltext36                              text36       000000
__Ltext37                              text37       000000
__Ltext38                              text38       000000
__Ltext39                              text39       000000
__Ltext4                               text4        000000
__Ltext40                              text40       000000
__Ltext41                              text41       000000
__Ltext42                              text42       000000
__Ltext44                              text44       000000
__Ltext45                              text45       000000
__Ltext46                              text46       000000
__Ltext47                              text47       000000
__Ltext48                              text48       000000
__Ltext49                              text49       000000
__Ltext5                               text5        000000
__Ltext50                              text50       000000
__Ltext51                              text51       000000
__Ltext52                              text52       000000
__Ltext53                              text53       000000
__Ltext54                              text54       000000
__Ltext55                              text55       000000
__Ltext56                              text56       000000
__Ltext57                              text57       000000
__Ltext58                              text58       000000
__Ltext59                              text59       000000
__Ltext6                               text6        000000
__Ltext60                              text60       000000
__Ltext7                               text7        000000
__Ltext8                               text8        000000
__Ltext9                               text9        000000
__S0                                   (abs)        30000E
__S1                                   (abs)        0002FA
__S2                                   (abs)        000000
___aldiv                               text7        001942
___aldiv@counter                       cstackBANK0  000068
___aldiv@dividend                      cstackBANK0  000060
___aldiv@divisor                       cstackBANK0  000064
___aldiv@quotient                      cstackBANK0  00006A
___aldiv@sign                          cstackBANK0  000069
___awdiv                               text27       001B72
___awdiv@counter                       cstackBANK0  000064
___awdiv@dividend                      cstackBANK0  000060
___awdiv@divisor                       cstackBANK0  000062
___awdiv@quotient                      cstackBANK0  000066
___awdiv@sign                          cstackBANK0  000065
___awmod                               text22       001E2C
___awmod@counter                       cstackBANK0  00006C
___awmod@dividend                      cstackBANK0  000068
___awmod@divisor                       cstackBANK0  00006A
___awmod@sign                          cstackBANK0  00006D
___inthi_sp                            stack        000000
___intlo_sp                            stack        000000
___param_bank                          (abs)        000000
___rparam_used                         (abs)        000001
___sp                                  stack        000000
___wmul                                text26       002A9E
___wmul@multiplicand                   cstackBANK0  000062
___wmul@multiplier                     cstackBANK0  000060
___wmul@product                        cstackBANK0  000064
__accesstop                            (abs)        000060
__activetblptr                         (abs)        000002
__end_of_Activamos_INT2                text42       002D04
__end_of_Apagar_Alarma                 text38       002C2C
__end_of_Cambio_Dia                    text32       00228C
__end_of_Cambio_de_Mes                 text31       002746
__end_of_Configurar_Alarma             text30       0027EE
__end_of_Crear_Cadena                  text24       000E0E
__end_of_Decena_Dia_Actual             text34       002838
__end_of_Dia_Actual                    text2        002150
__end_of_EEPROM_Guardar                text23       002A9E
__end_of_EEPROM_Lectura                text29       002CF6
__end_of_Guardar_Datos                 text21       001942
__end_of_I2C_Ack                       text17       002BB8
__end_of_I2C_Init                      text20       002C10
__end_of_I2C_Nack                      text37       002BD6
__end_of_I2C_Restart                   text36       002C62
__end_of_I2C_Rx                        text35       002B16
__end_of_I2C_Start                     text41       002C96
__end_of_I2C_Stop                      text40       002C7C
__end_of_I2C_Tx                        text39       002B38
__end_of_ISR                           intcode_body 002318
__end_of_LCD_Comando                   text19       0025B6
__end_of_LCD_Data                      text13       0023A2
__end_of_LCD_Init                      text18       0020A2
__end_of_LCD_XY                        text12       002A6A
__end_of_Leer_Fecha_Completa           text16       002908
__end_of_Leer_Hora                     text15       0028C4
__end_of_Limpiar_EEPROM                text14       00268E
__end_of_Mostrar_Fecha                 text11       002534
__end_of_Mostrar_Hora                  text10       0024AE
__end_of_USART_Cadena                  text8        0029F8
__end_of_USART_Init                    text6        00262C
__end_of_USART_Tx                      text9        002B7A
__end_of_Unidad_Dia_Actual             text33       002880
__end_of___aldiv                       text7        001A78
__end_of___awdiv                       text27       001C60
__end_of___awmod                       text22       001F06
__end_of___wmul                        text26       002ACA
__end_of__initialization               cinit        00241A
__end_of_atoi                          text3        001306
__end_of_concatenate                   text28       001E2C
__end_of_isdigit                       text5        002946
__end_of_isspace                       text4        0026EA
__end_of_itoa                          text25       001688
__end_of_main                          text0        0010F6
__end_of_memoria_segun_dias            text1        002982
__end_ofi2_Apagar_Alarma               text56       002C48
__end_ofi2_Dia_Actual                  text45       0021F6
__end_ofi2_I2C_Nack                    text55       002BF4
__end_ofi2_I2C_Restart                 text54       002CB0
__end_ofi2_I2C_Rx                      text53       002B5A
__end_ofi2_I2C_Start                   text59       002CE4
__end_ofi2_I2C_Stop                    text58       002CCA
__end_ofi2_I2C_Tx                      text57       002B9A
__end_ofi2___awdiv                     text47       001D4C
__end_ofi2___wmul                      text52       002AF4
__end_ofi2_atoi                        text49       00150E
__end_ofi2_concatenate                 text48       001FDE
__end_ofi2_isdigit                     text51       0029BE
__end_ofi2_isspace                     text50       0027A0
__end_ofi2_itoa                        text46       0017FE
__end_ofi2_memoria_segun_dias          text44       002A32
__initialization                       cinit        0023A2
__mediumconst                          mediumconst  000000
__pbssBANK0                            bssBANK0     0000A3
__pbssCOMRAM                           bssCOMRAM    00004C
__pcinit                               cinit        0023A2
__pcstackBANK0                         cstackBANK0  000060
__pcstackBANK1                         cstackBANK1  000100
__pcstackCOMRAM                        cstackCOMRAM 000001
__pdataBANK0                           dataBANK0    0000B3
__pdataBANK2                           dataBANK2    000200
__pdataCOMRAM                          dataCOMRAM   000054
__pidataBANK0                          idataBANK0   002D0B
__pidataBANK2                          idataBANK2   001A78
__pidataCOMRAM                         idataCOMRAM  002D04
__pintcode                             intcode      000008
__pintcode_body                        intcode_body 00228C
__psmallconst                          smallconst   000800
__ptext0                               text0        000E0E
__ptext1                               text1        002946
__ptext10                              text10       002428
__ptext11                              text11       0024AE
__ptext12                              text12       002A32
__ptext13                              text13       002318
__ptext14                              text14       00262C
__ptext15                              text15       002880
__ptext16                              text16       0028C4
__ptext17                              text17       002B9A
__ptext18                              text18       001FDE
__ptext19                              text19       002534
__ptext2                               text2        0020A2
__ptext20                              text20       002BF4
__ptext21                              text21       0017FE
__ptext22                              text22       001E2C
__ptext23                              text23       002A6A
__ptext24                              text24       00084E
__ptext25                              text25       00150E
__ptext26                              text26       002A9E
__ptext27                              text27       001B72
__ptext28                              text28       001D4C
__ptext29                              text29       002CE4
__ptext3                               text3        0010F6
__ptext30                              text30       0027A0
__ptext31                              text31       0026EA
__ptext32                              text32       0021F6
__ptext33                              text33       002838
__ptext34                              text34       0027EE
__ptext35                              text35       002AF4
__ptext36                              text36       002C48
__ptext37                              text37       002BB8
__ptext38                              text38       002C10
__ptext39                              text39       002B16
__ptext4                               text4        00268E
__ptext40                              text40       002C62
__ptext41                              text41       002C7C
__ptext42                              text42       002CF6
__ptext44                              text44       0029F8
__ptext45                              text45       002150
__ptext46                              text46       001688
__ptext47                              text47       001C60
__ptext48                              text48       001F06
__ptext49                              text49       001306
__ptext5                               text5        002908
__ptext50                              text50       002746
__ptext51                              text51       002982
__ptext52                              text52       002ACA
__ptext53                              text53       002B38
__ptext54                              text54       002C96
__ptext55                              text55       002BD6
__ptext56                              text56       002C2C
__ptext57                              text57       002B7A
__ptext58                              text58       002CB0
__ptext59                              text59       002CCA
__ptext6                               text6        0025B6
__ptext60                              text60       000000
__ptext7                               text7        001942
__ptext8                               text8        0029BE
__ptext9                               text9        002B5A
__ramtop                               ramtop       000800
__size_of_Activamos_INT2               (abs)        000000
__size_of_Apagar_Alarma                (abs)        000000
__size_of_Cambio_Dia                   (abs)        000000
__size_of_Cambio_de_Mes                (abs)        000000
__size_of_Configurar_Alarma            (abs)        000000
__size_of_Crear_Cadena                 (abs)        000000
__size_of_Decena_Dia_Actual            (abs)        000000
__size_of_Dia_Actual                   (abs)        000000
__size_of_EEPROM_Guardar               (abs)        000000
__size_of_EEPROM_Lectura               (abs)        000000
__size_of_Guardar_Datos                (abs)        000000
__size_of_I2C_Ack                      (abs)        000000
__size_of_I2C_Init                     (abs)        000000
__size_of_I2C_Nack                     (abs)        000000
__size_of_I2C_Restart                  (abs)        000000
__size_of_I2C_Rx                       (abs)        000000
__size_of_I2C_Start                    (abs)        000000
__size_of_I2C_Stop                     (abs)        000000
__size_of_I2C_Tx                       (abs)        000000
__size_of_ISR                          (abs)        000000
__size_of_LCD_Comando                  (abs)        000000
__size_of_LCD_Data                     (abs)        000000
__size_of_LCD_Init                     (abs)        000000
__size_of_LCD_XY                       (abs)        000000
__size_of_Leer_Fecha_Completa          (abs)        000000
__size_of_Leer_Hora                    (abs)        000000
__size_of_Limpiar_EEPROM               (abs)        000000
__size_of_Mostrar_Fecha                (abs)        000000
__size_of_Mostrar_Hora                 (abs)        000000
__size_of_USART_Cadena                 (abs)        000000
__size_of_USART_Init                   (abs)        000000
__size_of_USART_Tx                     (abs)        000000
__size_of_Unidad_Dia_Actual            (abs)        000000
__size_of___aldiv                      (abs)        000000
__size_of___awdiv                      (abs)        000000
__size_of___awmod                      (abs)        000000
__size_of___wmul                       (abs)        000000
__size_of_atoi                         (abs)        000000
__size_of_concatenate                  (abs)        000000
__size_of_isdigit                      (abs)        000000
__size_of_isspace                      (abs)        000000
__size_of_itoa                         (abs)        000000
__size_of_main                         (abs)        000000
__size_of_memoria_segun_dias           (abs)        000000
__size_ofi2_Apagar_Alarma              (abs)        000000
__size_ofi2_Dia_Actual                 (abs)        000000
__size_ofi2_I2C_Nack                   (abs)        000000
__size_ofi2_I2C_Restart                (abs)        000000
__size_ofi2_I2C_Rx                     (abs)        000000
__size_ofi2_I2C_Start                  (abs)        000000
__size_ofi2_I2C_Stop                   (abs)        000000
__size_ofi2_I2C_Tx                     (abs)        000000
__size_ofi2___awdiv                    (abs)        000000
__size_ofi2___wmul                     (abs)        000000
__size_ofi2_atoi                       (abs)        000000
__size_ofi2_concatenate                (abs)        000000
__size_ofi2_isdigit                    (abs)        000000
__size_ofi2_isspace                    (abs)        000000
__size_ofi2_itoa                       (abs)        000000
__size_ofi2_memoria_segun_dias         (abs)        000000
__smallconst                           smallconst   000800
_address_general                       bssBANK0     0000A7
_anio                                  bssBANK0     0000AD
_atoi                                  text3        0010F6
_atoi$1727                             cstackBANK0  00006F
_atoi$1728                             cstackBANK0  000073
_atoi$1729                             cstackBANK0  000071
_cadena                                bssCOMRAM    00004C
_concatenate                           text28       001D4C
_dia                                   bssBANK0     0000AF
_horas                                 bssBANK0     0000B2
_isdigit                               text5        002908
_isspace                               text4        00268E
_isspace$1745                          cstackBANK0  000066
_itoa                                  text25       00150E
_k                                     bssBANK0     0000A9
_main                                  text0        000E0E
_mas_significativo                     bssCOMRAM    000050
_memoria_segun_dias                    text1        002946
_memoria_segun_dias$1984               cstackBANK0  00009F
_menos_significativo                   bssCOMRAM    00004E
_mes                                   bssBANK0     0000AE
_minutos                               bssBANK0     0000B1
_segundos                              bssBANK0     0000B0
_set_fecha                             dataBANK0    0000B3
_set_hora                              dataCOMRAM   000054
atoi@n                                 cstackBANK0  000074
atoi@neg                               cstackBANK0  00006D
atoi@s                                 cstackBANK0  000067
btemp                                  temp         00005B
concatenate@c                          cstackBANK0  000068
concatenate@d                          cstackBANK0  000066
concatenate@p                          cstackBANK0  000060
concatenate@q                          cstackBANK0  000062
end_of_initialization                  cinit        00241A
i2Dia_Actual@cadena0_dia               cstackCOMRAM 00002A
i2Dia_Actual@cadena1_dia               cstackCOMRAM 00001A
i2Dia_Actual@dia_int                   cstackCOMRAM 00003A
i2I2C_Tx@data                          cstackCOMRAM 000001
i2_Apagar_Alarma                       text56       002C2C
i2_Dia_Actual                          text45       002150
i2_I2C_Nack                            text55       002BD6
i2_I2C_Restart                         text54       002C96
i2_I2C_Rx                              text53       002B38
i2_I2C_Start                           text59       002CCA
i2_I2C_Stop                            text58       002CB0
i2_I2C_Tx                              text57       002B7A
i2___awdiv                             text47       001C60
i2___awdiv@counter                     cstackCOMRAM 000005
i2___awdiv@dividend                    cstackCOMRAM 000001
i2___awdiv@divisor                     cstackCOMRAM 000003
i2___awdiv@quotient                    cstackCOMRAM 000007
i2___awdiv@sign                        cstackCOMRAM 000006
i2___wmul                              text52       002ACA
i2___wmul@multiplicand                 cstackCOMRAM 000003
i2___wmul@multiplier                   cstackCOMRAM 000001
i2___wmul@product                      cstackCOMRAM 000005
i2_atoi                                text49       001306
i2_atoi$1727                           cstackCOMRAM 000010
i2_atoi$1728                           cstackCOMRAM 000014
i2_atoi$1729                           cstackCOMRAM 000012
i2_concatenate                         text48       001F06
i2_isdigit                             text51       002982
i2_isspace                             text50       002746
i2_isspace$1745                        cstackCOMRAM 000007
i2_itoa                                text46       001688
i2_memoria_segun_dias                  text44       0029F8
i2_memoria_segun_dias$2083             cstackCOMRAM 00003E
i2atoi@n                               cstackCOMRAM 000015
i2atoi@neg                             cstackCOMRAM 00000E
i2atoi@s                               cstackCOMRAM 000008
i2concatenate@c                        cstackCOMRAM 000009
i2concatenate@d                        cstackCOMRAM 000007
i2concatenate@p                        cstackCOMRAM 000001
i2concatenate@q                        cstackCOMRAM 000003
i2isdigit@c                            cstackCOMRAM 000001
i2isspace@c                            cstackCOMRAM 000001
i2itoa@base                            cstackCOMRAM 00000D
i2itoa@ptr                             cstackCOMRAM 000014
i2itoa@ptr1                            cstackCOMRAM 000012
i2itoa@result                          cstackCOMRAM 00000B
i2itoa@tmp_char                        cstackCOMRAM 00000F
i2itoa@tmp_value                       cstackCOMRAM 000010
i2itoa@value                           cstackCOMRAM 000009
i2memoria_segun_dias@address_general_  cstackCOMRAM 000040
int$flags                              temp         00005B
int_func                               intcode_body 00228C
intlevel0                              text         000000
intlevel1                              text         000000
intlevel2                              text         000000
intlevel3                              text         000000
isdigit@c                              cstackBANK0  000060
isspace@c                              cstackBANK0  000060
itoa@base                              cstackBANK0  00006C
itoa@ptr                               cstackBANK0  000073
itoa@ptr1                              cstackBANK0  000071
itoa@result                            cstackBANK0  00006A
itoa@tmp_char                          cstackBANK0  00006E
itoa@tmp_value                         cstackBANK0  00006F
itoa@value                             cstackBANK0  000068
memoria_segun_dias@address_general_    cstackBANK0  00009D
stackhi                                (abs)        0007FF
stacklo                                (abs)        0002FA
start                                  init         00000E
start_initialization                   cinit        0023A2
ttemp5                                 temp         00005C
ttemp6                                 temp         00005F
ttemp7                                 temp         000063
wtemp8                                 temp         00005C


FUNCTION INFORMATION:

 *************** function _main *****************
 Defined at:
		line 24 in file "program_complete.c"
 Parameters:    Size  Location     Type
		None
 Auto vars:     Size  Location     Type
		None
 Return value:  Size  Location     Type
                  1    wreg      void 
 Registers used:
		wreg, fsr1l, fsr1h, fsr2l, fsr2h, status,2, status,0, tblptrl, tblptrh, tblptru, prodl, prodh, cstack
 Tracked objects:
		On entry : 
		On exit  : 
		Unchanged: 
 Data sizes:     COMRAM   BANK0   BANK1   BANK2   BANK3   BANK4   BANK5   BANK6   BANK7
      Params:         0       0       0       0       0       0       0       0       0
      Locals:         0       0       0       0       0       0       0       0       0
      Temps:          0       2       0       0       0       0       0       0       0
      Totals:         0       2       0       0       0       0       0       0       0
Total ram usage:        2 bytes
 Hardware stack levels required when called:    9
 This function calls:
		_Activamos_INT2
		_Apagar_Alarma
		_Cambio_Dia
		_Cambio_de_Mes
		_Configurar_Alarma
		_Crear_Cadena
		_Decena_Dia_Actual
		_EEPROM_Guardar
		_EEPROM_Lectura
		_Guardar_Datos
		_I2C_Init
		_LCD_Init
		_Leer_Fecha_Completa
		_Leer_Hora
		_Limpiar_EEPROM
		_Mostrar_Fecha
		_Mostrar_Hora
		_USART_Cadena
		_USART_Init
		_Unidad_Dia_Actual
		_memoria_segun_dias
 This function is called by:
		Startup code after reset
 This function uses a non-reentrant model


 *************** function _memoria_segun_dias *****************
 Defined at:
		line 110 in file "funciones_adicionales.c"
 Parameters:    Size  Location     Type
		None
 Auto vars:     Size  Location     Type
  address_gene    2   61[BANK0 ] int 
 Return value:  Size  Location     Type
                  2   59[BANK0 ] int 
 Registers used:
		wreg, fsr1l, fsr1h, fsr2l, fsr2h, status,2, status,0, tblptrl, tblptrh, tblptru, prodl, prodh, cstack
 Tracked objects:
		On entry : 
		On exit  : 
		Unchanged: 
 Data sizes:     COMRAM   BANK0   BANK1   BANK2   BANK3   BANK4   BANK5   BANK6   BANK7
      Params:         0       2       0       0       0       0       0       0       0
      Locals:         0       4       0       0       0       0       0       0       0
      Temps:          0       0       0       0       0       0       0       0       0
      Totals:         0       6       0       0       0       0       0       0       0
Total ram usage:        6 bytes
 Hardware stack levels used:    1
 Hardware stack levels required when called:    8
 This function calls:
		_Dia_Actual
		___wmul
 This function is called by:
		_main
 This function uses a non-reentrant model


 *************** function _Dia_Actual *****************
 Defined at:
		line 120 in file "ds3231_funciones.c"
 Parameters:    Size  Location     Type
		None
 Auto vars:     Size  Location     Type
  cadena0_dia    16   41[BANK0 ] unsigned char [16]
  cadena1_dia    16   25[BANK0 ] unsigned char [16]
  dia_int         2   57[BANK0 ] int 
 Return value:  Size  Location     Type
                  2   22[BANK0 ] int 
 Registers used:
		wreg, fsr1l, fsr1h, fsr2l, fsr2h, status,2, status,0, tblptrl, tblptrh, tblptru, prodl, prodh, cstack
 Tracked objects:
		On entry : 
		On exit  : 
		Unchanged: 
 Data sizes:     COMRAM   BANK0   BANK1   BANK2   BANK3   BANK4   BANK5   BANK6   BANK7
      Params:         0       2       0       0       0       0       0       0       0
      Locals:         0      34       0       0       0       0       0       0       0
      Temps:          0       1       0       0       0       0       0       0       0
      Totals:         0      37       0       0       0       0       0       0       0
Total ram usage:       37 bytes
 Hardware stack levels used:    1
 Hardware stack levels required when called:    7
 This function calls:
		_I2C_Nack
		_I2C_Restart
		_I2C_Rx
		_I2C_Start
		_I2C_Stop
		_I2C_Tx
		_atoi
		_concatenate
		_itoa
 This function is called by:
		_memoria_segun_dias
 This function uses a non-reentrant model


 *************** function _atoi *****************
 Defined at:
		line 4 in file "C:\Program Files (x86)\Microchip\xc8\v2.00\pic\sources\c99\common\atoi.c"
 Parameters:    Size  Location     Type
  s               2    7[BANK0 ] PTR const unsigned char 
		 -> Dia_Actual@cadena0_dia(16), 
 Auto vars:     Size  Location     Type
  n               2   20[BANK0 ] int 
  neg             2   13[BANK0 ] int 
 Return value:  Size  Location     Type
                  2    7[BANK0 ] int 
 Registers used:
		wreg, fsr2l, fsr2h, status,2, status,0, prodl, prodh, cstack
 Tracked objects:
		On entry : 
		On exit  : 
		Unchanged: 
 Data sizes:     COMRAM   BANK0   BANK1   BANK2   BANK3   BANK4   BANK5   BANK6   BANK7
      Params:         0       2       0       0       0       0       0       0       0
      Locals:         0       9       0       0       0       0       0       0       0
      Temps:          0       4       0       0       0       0       0       0       0
      Totals:         0      15       0       0       0       0       0       0       0
Total ram usage:       15 bytes
 Hardware stack levels used:    1
 Hardware stack levels required when called:    6
 This function calls:
		___wmul
		_isdigit
		_isspace
 This function is called by:
		_Dia_Actual
 This function uses a non-reentrant model


 *************** function _isspace *****************
 Defined at:
		line 5 in file "C:\Program Files (x86)\Microchip\xc8\v2.00\pic\sources\c99\common\isspace.c"
 Parameters:    Size  Location     Type
  c               2    0[BANK0 ] int 
 Auto vars:     Size  Location     Type
		None
 Return value:  Size  Location     Type
                  2    0[BANK0 ] int 
 Registers used:
		wreg, status,2, status,0
 Tracked objects:
		On entry : 
		On exit  : 
		Unchanged: 
 Data sizes:     COMRAM   BANK0   BANK1   BANK2   BANK3   BANK4   BANK5   BANK6   BANK7
      Params:         0       2       0       0       0       0       0       0       0
      Locals:         0       1       0       0       0       0       0       0       0
      Temps:          0       4       0       0       0       0       0       0       0
      Totals:         0       7       0       0       0       0       0       0       0
Total ram usage:        7 bytes
 Hardware stack levels used:    1
 Hardware stack levels required when called:    5
 This function calls:
		Nothing
 This function is called by:
		_atoi
 This function uses a non-reentrant model


 *************** function _isdigit *****************
 Defined at:
		line 5 in file "C:\Program Files (x86)\Microchip\xc8\v2.00\pic\sources\c99\common\isdigit.c"
 Parameters:    Size  Location     Type
  c               2    0[BANK0 ] int 
 Auto vars:     Size  Location     Type
		None
 Return value:  Size  Location     Type
                  2    0[BANK0 ] int 
 Registers used:
		wreg, status,2, status,0
 Tracked objects:
		On entry : 
		On exit  : 
		Unchanged: 
 Data sizes:     COMRAM   BANK0   BANK1   BANK2   BANK3   BANK4   BANK5   BANK6   BANK7
      Params:         0       2       0       0       0       0       0       0       0
      Locals:         0       0       0       0       0       0       0       0       0
      Temps:          0       4       0       0       0       0       0       0       0
      Totals:         0       6       0       0       0       0       0       0       0
Total ram usage:        6 bytes
 Hardware stack levels used:    1
 Hardware stack levels required when called:    5
 This function calls:
		Nothing
 This function is called by:
		_atoi
 This function uses a non-reentrant model


 *************** function _USART_Init *****************
 Defined at:
		line 13 in file "USART_lib.c"
 Parameters:    Size  Location     Type
  BAUD            4   14[BANK0 ] long 
 Auto vars:     Size  Location     Type
		None
 Return value:  Size  Location     Type
                  1    wreg      void 
 Registers used:
		wreg, status,2, status,0, cstack
 Tracked objects:
		On entry : 
		On exit  : 
		Unchanged: 
 Data sizes:     COMRAM   BANK0   BANK1   BANK2   BANK3   BANK4   BANK5   BANK6   BANK7
      Params:         0       4       0       0       0       0       0       0       0
      Locals:         0       4       0       0       0       0       0       0       0
      Temps:          0       0       0       0       0       0       0       0       0
      Totals:         0       8       0       0       0       0       0       0       0
Total ram usage:        8 bytes
 Hardware stack levels used:    1
 Hardware stack levels required when called:    6
 This function calls:
		___aldiv
 This function is called by:
		_main
 This function uses a non-reentrant model


 *************** function ___aldiv *****************
 Defined at:
		line 7 in file "C:\Program Files (x86)\Microchip\xc8\v2.00\pic\sources\c99\common\aldiv.c"
 Parameters:    Size  Location     Type
  dividend        4    0[BANK0 ] long 
  divisor         4    4[BANK0 ] long 
 Auto vars:     Size  Location     Type
  quotient        4   10[BANK0 ] long 
  sign            1    9[BANK0 ] unsigned char 
  counter         1    8[BANK0 ] unsigned char 
 Return value:  Size  Location     Type
                  4    0[BANK0 ] long 
 Registers used:
		wreg, status,2, status,0
 Tracked objects:
		On entry : 
		On exit  : 
		Unchanged: 
 Data sizes:     COMRAM   BANK0   BANK1   BANK2   BANK3   BANK4   BANK5   BANK6   BANK7
      Params:         0       8       0       0       0       0       0       0       0
      Locals:         0       6       0       0       0       0       0       0       0
      Temps:          0       0       0       0       0       0       0       0       0
      Totals:         0      14       0       0       0       0       0       0       0
Total ram usage:       14 bytes
 Hardware stack levels used:    1
 Hardware stack levels required when called:    5
 This function calls:
		Nothing
 This function is called by:
		_USART_Init
 This function uses a non-reentrant model


 *************** function _USART_Cadena *****************
 Defined at:
		line 44 in file "USART_lib.c"
 Parameters:    Size  Location     Type
  str             2   48[BANK0 ] PTR unsigned char 
		 -> Crear_Cadena@cadena0(250), 
 Auto vars:     Size  Location     Type
		None
 Return value:  Size  Location     Type
                  1    wreg      void 
 Registers used:
		wreg, fsr2l, fsr2h, status,2, status,0, cstack
 Tracked objects:
		On entry : 
		On exit  : 
		Unchanged: 
 Data sizes:     COMRAM   BANK0   BANK1   BANK2   BANK3   BANK4   BANK5   BANK6   BANK7
      Params:         0       2       0       0       0       0       0       0       0
      Locals:         0       0       0       0       0       0       0       0       0
      Temps:          0       0       0       0       0       0       0       0       0
      Totals:         0       2       0       0       0       0       0       0       0
Total ram usage:        2 bytes
 Hardware stack levels used:    1
 Hardware stack levels required when called:    6
 This function calls:
		_USART_Tx
 This function is called by:
		_main
 This function uses a non-reentrant model


 *************** function _USART_Tx *****************
 Defined at:
		line 35 in file "USART_lib.c"
 Parameters:    Size  Location     Type
  data            1    wreg     unsigned char 
 Auto vars:     Size  Location     Type
  data            1    0[BANK0 ] unsigned char 
 Return value:  Size  Location     Type
                  1    wreg      void 
 Registers used:
		wreg
 Tracked objects:
		On entry : 
		On exit  : 
		Unchanged: 
 Data sizes:     COMRAM   BANK0   BANK1   BANK2   BANK3   BANK4   BANK5   BANK6   BANK7
      Params:         0       0       0       0       0       0       0       0       0
      Locals:         0       1       0       0       0       0       0       0       0
      Temps:          0       0       0       0       0       0       0       0       0
      Totals:         0       1       0       0       0       0       0       0       0
Total ram usage:        1 bytes
 Hardware stack levels used:    1
 Hardware stack levels required when called:    5
 This function calls:
		Nothing
 This function is called by:
		_USART_Cadena
 This function uses a non-reentrant model


 *************** function _Mostrar_Hora *****************
 Defined at:
		line 66 in file "ds3231_funciones.c"
 Parameters:    Size  Location     Type
		None
 Auto vars:     Size  Location     Type
		None
 Return value:  Size  Location     Type
                  1    wreg      void 
 Registers used:
		wreg, status,2, status,0, cstack
 Tracked objects:
		On entry : 
		On exit  : 
		Unchanged: 
 Data sizes:     COMRAM   BANK0   BANK1   BANK2   BANK3   BANK4   BANK5   BANK6   BANK7
      Params:         0       0       0       0       0       0       0       0       0
      Locals:         0       0       0       0       0       0       0       0       0
      Temps:          0       2       0       0       0       0       0       0       0
      Totals:         0       2       0       0       0       0       0       0       0
Total ram usage:        2 bytes
 Hardware stack levels used:    1
 Hardware stack levels required when called:    7
 This function calls:
		_LCD_Data
		_LCD_XY
 This function is called by:
		_main
 This function uses a non-reentrant model


 *************** function _Mostrar_Fecha *****************
 Defined at:
		line 79 in file "ds3231_funciones.c"
 Parameters:    Size  Location     Type
		None
 Auto vars:     Size  Location     Type
		None
 Return value:  Size  Location     Type
                  1    wreg      void 
 Registers used:
		wreg, status,2, status,0, cstack
 Tracked objects:
		On entry : 
		On exit  : 
		Unchanged: 
 Data sizes:     COMRAM   BANK0   BANK1   BANK2   BANK3   BANK4   BANK5   BANK6   BANK7
      Params:         0       0       0       0       0       0       0       0       0
      Locals:         0       0       0       0       0       0       0       0       0
      Temps:          0       2       0       0       0       0       0       0       0
      Totals:         0       2       0       0       0       0       0       0       0
Total ram usage:        2 bytes
 Hardware stack levels used:    1
 Hardware stack levels required when called:    7
 This function calls:
		_LCD_Data
		_LCD_XY
 This function is called by:
		_main
 This function uses a non-reentrant model


 *************** function _LCD_XY *****************
 Defined at:
		line 86 in file "LCD_Libreria.c"
 Parameters:    Size  Location     Type
  x               2    2[BANK0 ] int 
  y               2    4[BANK0 ] int 
 Auto vars:     Size  Location     Type
		None
 Return value:  Size  Location     Type
                  1    wreg      void 
 Registers used:
		wreg, status,2, status,0, cstack
 Tracked objects:
		On entry : 
		On exit  : 
		Unchanged: 
 Data sizes:     COMRAM   BANK0   BANK1   BANK2   BANK3   BANK4   BANK5   BANK6   BANK7
      Params:         0       4       0       0       0       0       0       0       0
      Locals:         0       0       0       0       0       0       0       0       0
      Temps:          0       0       0       0       0       0       0       0       0
      Totals:         0       4       0       0       0       0       0       0       0
Total ram usage:        4 bytes
 Hardware stack levels used:    1
 Hardware stack levels required when called:    6
 This function calls:
		_LCD_Comando
 This function is called by:
		_Mostrar_Hora
		_Mostrar_Fecha
 This function uses a non-reentrant model


 *************** function _LCD_Data *****************
 Defined at:
		line 103 in file "LCD_Libreria.c"
 Parameters:    Size  Location     Type
  data            1    wreg     unsigned char 
 Auto vars:     Size  Location     Type
  data            1    1[BANK0 ] unsigned char 
 Return value:  Size  Location     Type
                  1    wreg      void 
 Registers used:
		wreg, status,2, status,0, cstack
 Tracked objects:
		On entry : 
		On exit  : 
		Unchanged: 
 Data sizes:     COMRAM   BANK0   BANK1   BANK2   BANK3   BANK4   BANK5   BANK6   BANK7
      Params:         0       0       0       0       0       0       0       0       0
      Locals:         0       1       0       0       0       0       0       0       0
      Temps:          0       1       0       0       0       0       0       0       0
      Totals:         0       2       0       0       0       0       0       0       0
Total ram usage:        2 bytes
 Hardware stack levels used:    1
 Hardware stack levels required when called:    5
 This function calls:
		Nothing
 This function is called by:
		_Mostrar_Hora
		_Mostrar_Fecha
		_LCD_Cadena
 This function uses a non-reentrant model


 *************** function _Limpiar_EEPROM *****************
 Defined at:
		line 27 in file "EEPROM.c"
 Parameters:    Size  Location     Type
		None
 Auto vars:     Size  Location     Type
  address         2    9[BANK0 ] int 
 Return value:  Size  Location     Type
                  1    wreg      void 
 Registers used:
		wreg, status,2, status,0, cstack
 Tracked objects:
		On entry : 
		On exit  : 
		Unchanged: 
 Data sizes:     COMRAM   BANK0   BANK1   BANK2   BANK3   BANK4   BANK5   BANK6   BANK7
      Params:         0       0       0       0       0       0       0       0       0
      Locals:         0       2       0       0       0       0       0       0       0
      Temps:          0       0       0       0       0       0       0       0       0
      Totals:         0       2       0       0       0       0       0       0       0
Total ram usage:        2 bytes
 Hardware stack levels used:    1
 Hardware stack levels required when called:    6
 This function calls:
		_EEPROM_Guardar
 This function is called by:
		_main
 This function uses a non-reentrant model


 *************** function _Leer_Hora *****************
 Defined at:
		line 36 in file "ds3231_funciones.c"
 Parameters:    Size  Location     Type
		None
 Auto vars:     Size  Location     Type
		None
 Return value:  Size  Location     Type
                  1    wreg      void 
 Registers used:
		wreg, status,2, cstack
 Tracked objects:
		On entry : 
		On exit  : 
		Unchanged: 
 Data sizes:     COMRAM   BANK0   BANK1   BANK2   BANK3   BANK4   BANK5   BANK6   BANK7
      Params:         0       0       0       0       0       0       0       0       0
      Locals:         0       0       0       0       0       0       0       0       0
      Temps:          0       0       0       0       0       0       0       0       0
      Totals:         0       0       0       0       0       0       0       0       0
Total ram usage:        0 bytes
 Hardware stack levels used:    1
 Hardware stack levels required when called:    6
 This function calls:
		_I2C_Ack
		_I2C_Nack
		_I2C_Restart
		_I2C_Rx
		_I2C_Start
		_I2C_Stop
		_I2C_Tx
 This function is called by:
		_main
 This function uses a non-reentrant model


 *************** function _Leer_Fecha_Completa *****************
 Defined at:
		line 51 in file "ds3231_funciones.c"
 Parameters:    Size  Location     Type
		None
 Auto vars:     Size  Location     Type
		None
 Return value:  Size  Location     Type
                  1    wreg      void 
 Registers used:
		wreg, status,2, cstack
 Tracked objects:
		On entry : 
		On exit  : 
		Unchanged: 
 Data sizes:     COMRAM   BANK0   BANK1   BANK2   BANK3   BANK4   BANK5   BANK6   BANK7
      Params:         0       0       0       0       0       0       0       0       0
      Locals:         0       0       0       0       0       0       0       0       0
      Temps:          0       0       0       0       0       0       0       0       0
      Totals:         0       0       0       0       0       0       0       0       0
Total ram usage:        0 bytes
 Hardware stack levels used:    1
 Hardware stack levels required when called:    6
 This function calls:
		_I2C_Ack
		_I2C_Nack
		_I2C_Restart
		_I2C_Rx
		_I2C_Start
		_I2C_Stop
		_I2C_Tx
 This function is called by:
		_main
 This function uses a non-reentrant model


 *************** function _I2C_Ack *****************
 Defined at:
		line 37 in file "I2C_Libreria.c"
 Parameters:    Size  Location     Type
		None
 Auto vars:     Size  Location     Type
		None
 Return value:  Size  Location     Type
                  1    wreg      void 
 Registers used:
		None
 Tracked objects:
		On entry : 
		On exit  : 
		Unchanged: 
 Data sizes:     COMRAM   BANK0   BANK1   BANK2   BANK3   BANK4   BANK5   BANK6   BANK7
      Params:         0       0       0       0       0       0       0       0       0
      Locals:         0       0       0       0       0       0       0       0       0
      Temps:          0       0       0       0       0       0       0       0       0
      Totals:         0       0       0       0       0       0       0       0       0
Total ram usage:        0 bytes
 Hardware stack levels used:    1
 Hardware stack levels required when called:    5
 This function calls:
		Nothing
 This function is called by:
		_Leer_Hora
		_Leer_Fecha_Completa
 This function uses a non-reentrant model


 *************** function _LCD_Init *****************
 Defined at:
		line 6 in file "LCD_Libreria.c"
 Parameters:    Size  Location     Type
		None
 Auto vars:     Size  Location     Type
		None
 Return value:  Size  Location     Type
                  1    wreg      void 
 Registers used:
		wreg, status,2, status,0, cstack
 Tracked objects:
		On entry : 
		On exit  : 
		Unchanged: 
 Data sizes:     COMRAM   BANK0   BANK1   BANK2   BANK3   BANK4   BANK5   BANK6   BANK7
      Params:         0       0       0       0       0       0       0       0       0
      Locals:         0       0       0       0       0       0       0       0       0
      Temps:          0       1       0       0       0       0       0       0       0
      Totals:         0       1       0       0       0       0       0       0       0
Total ram usage:        1 bytes
 Hardware stack levels used:    1
 Hardware stack levels required when called:    6
 This function calls:
		_LCD_Comando
 This function is called by:
		_main
 This function uses a non-reentrant model


 *************** function _LCD_Comando *****************
 Defined at:
		line 52 in file "LCD_Libreria.c"
 Parameters:    Size  Location     Type
  cmd             1    wreg     unsigned char 
 Auto vars:     Size  Location     Type
  cmd             1    1[BANK0 ] unsigned char 
 Return value:  Size  Location     Type
                  1    wreg      void 
 Registers used:
		wreg, status,2, status,0
 Tracked objects:
		On entry : 
		On exit  : 
		Unchanged: 
 Data sizes:     COMRAM   BANK0   BANK1   BANK2   BANK3   BANK4   BANK5   BANK6   BANK7
      Params:         0       0       0       0       0       0       0       0       0
      Locals:         0       1       0       0       0       0       0       0       0
      Temps:          0       1       0       0       0       0       0       0       0
      Totals:         0       2       0       0       0       0       0       0       0
Total ram usage:        2 bytes
 Hardware stack levels used:    1
 Hardware stack levels required when called:    5
 This function calls:
		Nothing
 This function is called by:
		_LCD_Init
		_LCD_XY
 This function uses a non-reentrant model


 *************** function _I2C_Init *****************
 Defined at:
		line 5 in file "I2C_Libreria.c"
 Parameters:    Size  Location     Type
		None
 Auto vars:     Size  Location     Type
		None
 Return value:  Size  Location     Type
                  1    wreg      void 
 Registers used:
		wreg, status,2
 Tracked objects:
		On entry : 
		On exit  : 
		Unchanged: 
 Data sizes:     COMRAM   BANK0   BANK1   BANK2   BANK3   BANK4   BANK5   BANK6   BANK7
      Params:         0       0       0       0       0       0       0       0       0
      Locals:         0       0       0       0       0       0       0       0       0
      Temps:          0       0       0       0       0       0       0       0       0
      Totals:         0       0       0       0       0       0       0       0       0
Total ram usage:        0 bytes
 Hardware stack levels used:    1
 Hardware stack levels required when called:    5
 This function calls:
		Nothing
 This function is called by:
		_main
 This function uses a non-reentrant model


 *************** function _Guardar_Datos *****************
 Defined at:
		line 53 in file "funciones_adicionales.c"
 Parameters:    Size  Location     Type
  Pot_acumulad    2   14[BANK0 ] int 
  address_int     2   16[BANK0 ] int 
 Auto vars:     Size  Location     Type
  address_diar    2   22[BANK0 ] int 
  digito          2   20[BANK0 ] int 
  Pot_acumulad    1   19[BANK0 ] unsigned char 
  Pot_acumulad    1   18[BANK0 ] unsigned char 
 Return value:  Size  Location     Type
                  2   14[BANK0 ] int 
 Registers used:
		wreg, status,2, status,0, cstack
 Tracked objects:
		On entry : 
		On exit  : 
		Unchanged: 
 Data sizes:     COMRAM   BANK0   BANK1   BANK2   BANK3   BANK4   BANK5   BANK6   BANK7
      Params:         0       4       0       0       0       0       0       0       0
      Locals:         0       6       0       0       0       0       0       0       0
      Temps:          0       0       0       0       0       0       0       0       0
      Totals:         0      10       0       0       0       0       0       0       0
Total ram usage:       10 bytes
 Hardware stack levels used:    1
 Hardware stack levels required when called:    6
 This function calls:
		_EEPROM_Guardar
		___awdiv
		___awmod
 This function is called by:
		_main
 This function uses a non-reentrant model


 *************** function ___awmod *****************
 Defined at:
		line 7 in file "C:\Program Files (x86)\Microchip\xc8\v2.00\pic\sources\c99\common\awmod.c"
 Parameters:    Size  Location     Type
  dividend        2    8[BANK0 ] int 
  divisor         2   10[BANK0 ] int 
 Auto vars:     Size  Location     Type
  sign            1   13[BANK0 ] unsigned char 
  counter         1   12[BANK0 ] unsigned char 
 Return value:  Size  Location     Type
                  2    8[BANK0 ] int 
 Registers used:
		wreg, status,2, status,0
 Tracked objects:
		On entry : 
		On exit  : 
		Unchanged: 
 Data sizes:     COMRAM   BANK0   BANK1   BANK2   BANK3   BANK4   BANK5   BANK6   BANK7
      Params:         0       4       0       0       0       0       0       0       0
      Locals:         0       2       0       0       0       0       0       0       0
      Temps:          0       0       0       0       0       0       0       0       0
      Totals:         0       6       0       0       0       0       0       0       0
Total ram usage:        6 bytes
 Hardware stack levels used:    1
 Hardware stack levels required when called:    5
 This function calls:
		Nothing
 This function is called by:
		_Guardar_Datos
 This function uses a non-reentrant model


 *************** function _EEPROM_Guardar *****************
 Defined at:
		line 3 in file "EEPROM.c"
 Parameters:    Size  Location     Type
  dir             2    6[BANK0 ] int 
  data            1    8[BANK0 ] unsigned char 
 Auto vars:     Size  Location     Type
		None
 Return value:  Size  Location     Type
                  1    wreg      void 
 Registers used:
		wreg, status,2
 Tracked objects:
		On entry : 
		On exit  : 
		Unchanged: 
 Data sizes:     COMRAM   BANK0   BANK1   BANK2   BANK3   BANK4   BANK5   BANK6   BANK7
      Params:         0       3       0       0       0       0       0       0       0
      Locals:         0       0       0       0       0       0       0       0       0
      Temps:          0       0       0       0       0       0       0       0       0
      Totals:         0       3       0       0       0       0       0       0       0
Total ram usage:        3 bytes
 Hardware stack levels used:    1
 Hardware stack levels required when called:    5
 This function calls:
		Nothing
 This function is called by:
		_main
		_Limpiar_EEPROM
		_Guardar_Datos
 This function uses a non-reentrant model


 *************** function _Crear_Cadena *****************
 Defined at:
		line 87 in file "funciones_adicionales.c"
 Parameters:    Size  Location     Type
		None
 Auto vars:     Size  Location     Type
  x               2   44[BANK0 ] int 
  r               2   46[BANK0 ] int 
  cadena0       250    0[BANK1 ] unsigned char [250]
  cadena1        20   24[BANK0 ] unsigned char [20]
 Return value:  Size  Location     Type
                  2   21[BANK0 ] PTR unsigned char 
 Registers used:
		wreg, fsr1l, fsr1h, fsr2l, fsr2h, status,2, status,0, tblptrl, tblptrh, tblptru, prodl, prodh, cstack
 Tracked objects:
		On entry : 
		On exit  : 
		Unchanged: 
 Data sizes:     COMRAM   BANK0   BANK1   BANK2   BANK3   BANK4   BANK5   BANK6   BANK7
      Params:         0       2       0       0       0       0       0       0       0
      Locals:         0      24     250       0       0       0       0       0       0
      Temps:          0       1       0       0       0       0       0       0       0
      Totals:         0      27     250       0       0       0       0       0       0
Total ram usage:      277 bytes
 Hardware stack levels used:    1
 Hardware stack levels required when called:    7
 This function calls:
		_EEPROM_Lectura
		_concatenate
		_itoa
 This function is called by:
		_main
 This function uses a non-reentrant model


 *************** function _itoa *****************
 Defined at:
		line 14 in file "funciones_adicionales.c"
 Parameters:    Size  Location     Type
  value           2    8[BANK0 ] int 
  result          2   10[BANK0 ] PTR unsigned char 
		 -> Crear_Cadena@cadena1(20), Dia_Actual@cadena1_dia(16), Dia_Actual@cadena0_dia(16), 
  base            2   12[BANK0 ] int 
 Auto vars:     Size  Location     Type
  ptr             2   19[BANK0 ] PTR unsigned char 
		 -> Crear_Cadena@cadena1(20), Dia_Actual@cadena1_dia(16), Dia_Actual@cadena0_dia(16), 
  ptr1            2   17[BANK0 ] PTR unsigned char 
		 -> Crear_Cadena@cadena1(20), Dia_Actual@cadena1_dia(16), Dia_Actual@cadena0_dia(16), 
  tmp_value       2   15[BANK0 ] int 
  tmp_char        1   14[BANK0 ] unsigned char 
 Return value:  Size  Location     Type
                  2    8[BANK0 ] PTR unsigned char 
 Registers used:
		wreg, fsr1l, fsr1h, fsr2l, fsr2h, status,2, status,0, tblptrl, tblptrh, tblptru, prodl, prodh, cstack
 Tracked objects:
		On entry : 
		On exit  : 
		Unchanged: 
 Data sizes:     COMRAM   BANK0   BANK1   BANK2   BANK3   BANK4   BANK5   BANK6   BANK7
      Params:         0       6       0       0       0       0       0       0       0
      Locals:         0       7       0       0       0       0       0       0       0
      Temps:          0       0       0       0       0       0       0       0       0
      Totals:         0      13       0       0       0       0       0       0       0
Total ram usage:       13 bytes
 Hardware stack levels used:    1
 Hardware stack levels required when called:    6
 This function calls:
		___awdiv
		___wmul
 This function is called by:
		_Dia_Actual
		_Crear_Cadena
 This function uses a non-reentrant model


 *************** function ___wmul *****************
 Defined at:
		line 15 in file "C:\Program Files (x86)\Microchip\xc8\v2.00\pic\sources\c99\common\Umul16.c"
 Parameters:    Size  Location     Type
  multiplier      2    0[BANK0 ] unsigned int 
  multiplicand    2    2[BANK0 ] unsigned int 
 Auto vars:     Size  Location     Type
  product         2    4[BANK0 ] unsigned int 
 Return value:  Size  Location     Type
                  2    0[BANK0 ] unsigned int 
 Registers used:
		wreg, status,2, status,0, prodl, prodh
 Tracked objects:
		On entry : 
		On exit  : 
		Unchanged: 
 Data sizes:     COMRAM   BANK0   BANK1   BANK2   BANK3   BANK4   BANK5   BANK6   BANK7
      Params:         0       4       0       0       0       0       0       0       0
      Locals:         0       2       0       0       0       0       0       0       0
      Temps:          0       0       0       0       0       0       0       0       0
      Totals:         0       6       0       0       0       0       0       0       0
Total ram usage:        6 bytes
 Hardware stack levels used:    1
 Hardware stack levels required when called:    5
 This function calls:
		Nothing
 This function is called by:
		_itoa
		_memoria_segun_dias
		_atoi
 This function uses a non-reentrant model


 *************** function ___awdiv *****************
 Defined at:
		line 7 in file "C:\Program Files (x86)\Microchip\xc8\v2.00\pic\sources\c99\common\awdiv.c"
 Parameters:    Size  Location     Type
  dividend        2    0[BANK0 ] int 
  divisor         2    2[BANK0 ] int 
 Auto vars:     Size  Location     Type
  quotient        2    6[BANK0 ] int 
  sign            1    5[BANK0 ] unsigned char 
  counter         1    4[BANK0 ] unsigned char 
 Return value:  Size  Location     Type
                  2    0[BANK0 ] int 
 Registers used:
		wreg, status,2, status,0
 Tracked objects:
		On entry : 
		On exit  : 
		Unchanged: 
 Data sizes:     COMRAM   BANK0   BANK1   BANK2   BANK3   BANK4   BANK5   BANK6   BANK7
      Params:         0       4       0       0       0       0       0       0       0
      Locals:         0       4       0       0       0       0       0       0       0
      Temps:          0       0       0       0       0       0       0       0       0
      Totals:         0       8       0       0       0       0       0       0       0
Total ram usage:        8 bytes
 Hardware stack levels used:    1
 Hardware stack levels required when called:    5
 This function calls:
		Nothing
 This function is called by:
		_itoa
		_Guardar_Datos
 This function uses a non-reentrant model


 *************** function _concatenate *****************
 Defined at:
		line 33 in file "funciones_adicionales.c"
 Parameters:    Size  Location     Type
  p               2    0[BANK0 ] PTR unsigned char 
		 -> Crear_Cadena@cadena0(250), Dia_Actual@cadena0_dia(16), 
  q               2    2[BANK0 ] PTR unsigned char 
		 -> STR_3(2), STR_2(2), Crear_Cadena@cadena1(20), Dia_Actual@cadena1_dia(16), 
 Auto vars:     Size  Location     Type
  c               2    8[BANK0 ] int 
  d               2    6[BANK0 ] int 
 Return value:  Size  Location     Type
                  1    wreg      void 
 Registers used:
		wreg, fsr1l, fsr1h, fsr2l, fsr2h, status,2, status,0, tblptrl, tblptrh, tblptru
 Tracked objects:
		On entry : 
		On exit  : 
		Unchanged: 
 Data sizes:     COMRAM   BANK0   BANK1   BANK2   BANK3   BANK4   BANK5   BANK6   BANK7
      Params:         0       4       0       0       0       0       0       0       0
      Locals:         0       4       0       0       0       0       0       0       0
      Temps:          0       2       0       0       0       0       0       0       0
      Totals:         0      10       0       0       0       0       0       0       0
Total ram usage:       10 bytes
 Hardware stack levels used:    1
 Hardware stack levels required when called:    5
 This function calls:
		Nothing
 This function is called by:
		_Dia_Actual
		_Crear_Cadena
 This function uses a non-reentrant model


 *************** function _EEPROM_Lectura *****************
 Defined at:
		line 19 in file "EEPROM.c"
 Parameters:    Size  Location     Type
  dir             2    0[BANK0 ] int 
 Auto vars:     Size  Location     Type
		None
 Return value:  Size  Location     Type
                  1    wreg      unsigned char 
 Registers used:
		wreg, status,2
 Tracked objects:
		On entry : 
		On exit  : 
		Unchanged: 
 Data sizes:     COMRAM   BANK0   BANK1   BANK2   BANK3   BANK4   BANK5   BANK6   BANK7
      Params:         0       2       0       0       0       0       0       0       0
      Locals:         0       0       0       0       0       0       0       0       0
      Temps:          0       0       0       0       0       0       0       0       0
      Totals:         0       2       0       0       0       0       0       0       0
Total ram usage:        2 bytes
 Hardware stack levels used:    1
 Hardware stack levels required when called:    5
 This function calls:
		Nothing
 This function is called by:
		_main
		_Crear_Cadena
 This function uses a non-reentrant model


 *************** function _Configurar_Alarma *****************
 Defined at:
		line 92 in file "ds3231_funciones.c"
 Parameters:    Size  Location     Type
		None
 Auto vars:     Size  Location     Type
		None
 Return value:  Size  Location     Type
                  1    wreg      void 
 Registers used:
		wreg, cstack
 Tracked objects:
		On entry : 
		On exit  : 
		Unchanged: 
 Data sizes:     COMRAM   BANK0   BANK1   BANK2   BANK3   BANK4   BANK5   BANK6   BANK7
      Params:         0       0       0       0       0       0       0       0       0
      Locals:         0       0       0       0       0       0       0       0       0
      Temps:          0       0       0       0       0       0       0       0       0
      Totals:         0       0       0       0       0       0       0       0       0
Total ram usage:        0 bytes
 Hardware stack levels used:    1
 Hardware stack levels required when called:    6
 This function calls:
		_I2C_Start
		_I2C_Stop
		_I2C_Tx
 This function is called by:
		_main
 This function uses a non-reentrant model


 *************** function _Cambio_de_Mes *****************
 Defined at:
		line 116 in file "funciones_adicionales.c"
 Parameters:    Size  Location     Type
  Dia_Ayer_int    2    6[BANK0 ] int 
 Auto vars:     Size  Location     Type
  cambio_mes      2   11[BANK0 ] int 
  Dia_Hoy_int     2    9[BANK0 ] int 
 Return value:  Size  Location     Type
                  2    6[BANK0 ] int 
 Registers used:
		wreg, status,2, status,0, cstack
 Tracked objects:
		On entry : 
		On exit  : 
		Unchanged: 
 Data sizes:     COMRAM   BANK0   BANK1   BANK2   BANK3   BANK4   BANK5   BANK6   BANK7
      Params:         0       2       0       0       0       0       0       0       0
      Locals:         0       4       0       0       0       0       0       0       0
      Temps:          0       1       0       0       0       0       0       0       0
      Totals:         0       7       0       0       0       0       0       0       0
Total ram usage:        7 bytes
 Hardware stack levels used:    1
 Hardware stack levels required when called:    7
 This function calls:
		_Decena_Dia_Actual
 This function is called by:
		_main
 This function uses a non-reentrant model


 *************** function _Cambio_Dia *****************
 Defined at:
		line 134 in file "funciones_adicionales.c"
 Parameters:    Size  Location     Type
  Unidad_Dia_A    2    6[BANK0 ] int 
  Decena_Dia_A    2    8[BANK0 ] int 
 Auto vars:     Size  Location     Type
  Unidad_Dia_H    2   14[BANK0 ] int 
  cambio_dia      2   12[BANK0 ] int 
  Decena_Dia_H    2   10[BANK0 ] int 
 Return value:  Size  Location     Type
                  2    6[BANK0 ] int 
 Registers used:
		wreg, status,2, status,0, cstack
 Tracked objects:
		On entry : 
		On exit  : 
		Unchanged: 
 Data sizes:     COMRAM   BANK0   BANK1   BANK2   BANK3   BANK4   BANK5   BANK6   BANK7
      Params:         0       4       0       0       0       0       0       0       0
      Locals:         0       6       0       0       0       0       0       0       0
      Temps:          0       0       0       0       0       0       0       0       0
      Totals:         0      10       0       0       0       0       0       0       0
Total ram usage:       10 bytes
 Hardware stack levels used:    1
 Hardware stack levels required when called:    7
 This function calls:
		_Decena_Dia_Actual
		_Unidad_Dia_Actual
 This function is called by:
		_main
 This function uses a non-reentrant model


 *************** function _Unidad_Dia_Actual *****************
 Defined at:
		line 161 in file "ds3231_funciones.c"
 Parameters:    Size  Location     Type
		None
 Auto vars:     Size  Location     Type
  unidad_dia      2    4[BANK0 ] int 
 Return value:  Size  Location     Type
                  2    1[BANK0 ] int 
 Registers used:
		wreg, status,2, status,0, cstack
 Tracked objects:
		On entry : 
		On exit  : 
		Unchanged: 
 Data sizes:     COMRAM   BANK0   BANK1   BANK2   BANK3   BANK4   BANK5   BANK6   BANK7
      Params:         0       2       0       0       0       0       0       0       0
      Locals:         0       2       0       0       0       0       0       0       0
      Temps:          0       1       0       0       0       0       0       0       0
      Totals:         0       5       0       0       0       0       0       0       0
Total ram usage:        5 bytes
 Hardware stack levels used:    1
 Hardware stack levels required when called:    6
 This function calls:
		_I2C_Nack
		_I2C_Restart
		_I2C_Rx
		_I2C_Start
		_I2C_Stop
		_I2C_Tx
 This function is called by:
		_main
		_Cambio_Dia
 This function uses a non-reentrant model


 *************** function _Decena_Dia_Actual *****************
 Defined at:
		line 144 in file "ds3231_funciones.c"
 Parameters:    Size  Location     Type
		None
 Auto vars:     Size  Location     Type
  decena_dia      2    4[BANK0 ] int 
 Return value:  Size  Location     Type
                  2    1[BANK0 ] int 
 Registers used:
		wreg, status,2, status,0, cstack
 Tracked objects:
		On entry : 
		On exit  : 
		Unchanged: 
 Data sizes:     COMRAM   BANK0   BANK1   BANK2   BANK3   BANK4   BANK5   BANK6   BANK7
      Params:         0       2       0       0       0       0       0       0       0
      Locals:         0       2       0       0       0       0       0       0       0
      Temps:          0       1       0       0       0       0       0       0       0
      Totals:         0       5       0       0       0       0       0       0       0
Total ram usage:        5 bytes
 Hardware stack levels used:    1
 Hardware stack levels required when called:    6
 This function calls:
		_I2C_Nack
		_I2C_Restart
		_I2C_Rx
		_I2C_Start
		_I2C_Stop
		_I2C_Tx
 This function is called by:
		_main
		_Cambio_de_Mes
		_Cambio_Dia
 This function uses a non-reentrant model


 *************** function _I2C_Rx *****************
 Defined at:
		line 57 in file "I2C_Libreria.c"
 Parameters:    Size  Location     Type
		None
 Auto vars:     Size  Location     Type
		None
 Return value:  Size  Location     Type
                  1    wreg      unsigned char 
 Registers used:
		wreg, status,2
 Tracked objects:
		On entry : 
		On exit  : 
		Unchanged: 
 Data sizes:     COMRAM   BANK0   BANK1   BANK2   BANK3   BANK4   BANK5   BANK6   BANK7
      Params:         0       0       0       0       0       0       0       0       0
      Locals:         0       0       0       0       0       0       0       0       0
      Temps:          0       0       0       0       0       0       0       0       0
      Totals:         0       0       0       0       0       0       0       0       0
Total ram usage:        0 bytes
 Hardware stack levels used:    1
 Hardware stack levels required when called:    5
 This function calls:
		Nothing
 This function is called by:
		_Leer_Hora
		_Leer_Fecha_Completa
		_Dia_Actual
		_Decena_Dia_Actual
		_Unidad_Dia_Actual
 This function uses a non-reentrant model


 *************** function _I2C_Restart *****************
 Defined at:
		line 32 in file "I2C_Libreria.c"
 Parameters:    Size  Location     Type
		None
 Auto vars:     Size  Location     Type
		None
 Return value:  Size  Location     Type
                  1    wreg      void 
 Registers used:
		None
 Tracked objects:
		On entry : 
		On exit  : 
		Unchanged: 
 Data sizes:     COMRAM   BANK0   BANK1   BANK2   BANK3   BANK4   BANK5   BANK6   BANK7
      Params:         0       0       0       0       0       0       0       0       0
      Locals:         0       0       0       0       0       0       0       0       0
      Temps:          0       0       0       0       0       0       0       0       0
      Totals:         0       0       0       0       0       0       0       0       0
Total ram usage:        0 bytes
 Hardware stack levels used:    1
 Hardware stack levels required when called:    5
 This function calls:
		Nothing
 This function is called by:
		_Leer_Hora
		_Leer_Fecha_Completa
		_Dia_Actual
		_Decena_Dia_Actual
		_Unidad_Dia_Actual
 This function uses a non-reentrant model


 *************** function _I2C_Nack *****************
 Defined at:
		line 44 in file "I2C_Libreria.c"
 Parameters:    Size  Location     Type
		None
 Auto vars:     Size  Location     Type
		None
 Return value:  Size  Location     Type
                  1    wreg      void 
 Registers used:
		None
 Tracked objects:
		On entry : 
		On exit  : 
		Unchanged: 
 Data sizes:     COMRAM   BANK0   BANK1   BANK2   BANK3   BANK4   BANK5   BANK6   BANK7
      Params:         0       0       0       0       0       0       0       0       0
      Locals:         0       0       0       0       0       0       0       0       0
      Temps:          0       0       0       0       0       0       0       0       0
      Totals:         0       0       0       0       0       0       0       0       0
Total ram usage:        0 bytes
 Hardware stack levels used:    1
 Hardware stack levels required when called:    5
 This function calls:
		Nothing
 This function is called by:
		_Leer_Hora
		_Leer_Fecha_Completa
		_Dia_Actual
		_Decena_Dia_Actual
		_Unidad_Dia_Actual
 This function uses a non-reentrant model


 *************** function _Apagar_Alarma *****************
 Defined at:
		line 112 in file "ds3231_funciones.c"
 Parameters:    Size  Location     Type
		None
 Auto vars:     Size  Location     Type
		None
 Return value:  Size  Location     Type
                  1    wreg      void 
 Registers used:
		wreg, cstack
 Tracked objects:
		On entry : 
		On exit  : 
		Unchanged: 
 Data sizes:     COMRAM   BANK0   BANK1   BANK2   BANK3   BANK4   BANK5   BANK6   BANK7
      Params:         0       0       0       0       0       0       0       0       0
      Locals:         0       0       0       0       0       0       0       0       0
      Temps:          0       0       0       0       0       0       0       0       0
      Totals:         0       0       0       0       0       0       0       0       0
Total ram usage:        0 bytes
 Hardware stack levels used:    1
 Hardware stack levels required when called:    6
 This function calls:
		_I2C_Start
		_I2C_Stop
		_I2C_Tx
 This function is called by:
		_main
 This function uses a non-reentrant model


 *************** function _I2C_Tx *****************
 Defined at:
		line 51 in file "I2C_Libreria.c"
 Parameters:    Size  Location     Type
  data            1    wreg     unsigned char 
 Auto vars:     Size  Location     Type
  data            1    0[BANK0 ] unsigned char 
 Return value:  Size  Location     Type
                  1    wreg      void 
 Registers used:
		wreg
 Tracked objects:
		On entry : 
		On exit  : 
		Unchanged: 
 Data sizes:     COMRAM   BANK0   BANK1   BANK2   BANK3   BANK4   BANK5   BANK6   BANK7
      Params:         0       0       0       0       0       0       0       0       0
      Locals:         0       1       0       0       0       0       0       0       0
      Temps:          0       0       0       0       0       0       0       0       0
      Totals:         0       1       0       0       0       0       0       0       0
Total ram usage:        1 bytes
 Hardware stack levels used:    1
 Hardware stack levels required when called:    5
 This function calls:
		Nothing
 This function is called by:
		_Leer_Hora
		_Leer_Fecha_Completa
		_Configurar_Alarma
		_Apagar_Alarma
		_Dia_Actual
		_Decena_Dia_Actual
		_Unidad_Dia_Actual
		_Envio_Hora
		_Envio_Fecha
 This function uses a non-reentrant model


 *************** function _I2C_Stop *****************
 Defined at:
		line 27 in file "I2C_Libreria.c"
 Parameters:    Size  Location     Type
		None
 Auto vars:     Size  Location     Type
		None
 Return value:  Size  Location     Type
                  1    wreg      void 
 Registers used:
		None
 Tracked objects:
		On entry : 
		On exit  : 
		Unchanged: 
 Data sizes:     COMRAM   BANK0   BANK1   BANK2   BANK3   BANK4   BANK5   BANK6   BANK7
      Params:         0       0       0       0       0       0       0       0       0
      Locals:         0       0       0       0       0       0       0       0       0
      Temps:          0       0       0       0       0       0       0       0       0
      Totals:         0       0       0       0       0       0       0       0       0
Total ram usage:        0 bytes
 Hardware stack levels used:    1
 Hardware stack levels required when called:    5
 This function calls:
		Nothing
 This function is called by:
		_Leer_Hora
		_Leer_Fecha_Completa
		_Configurar_Alarma
		_Apagar_Alarma
		_Dia_Actual
		_Decena_Dia_Actual
		_Unidad_Dia_Actual
		_Envio_Hora
		_Envio_Fecha
 This function uses a non-reentrant model


 *************** function _I2C_Start *****************
 Defined at:
		line 22 in file "I2C_Libreria.c"
 Parameters:    Size  Location     Type
		None
 Auto vars:     Size  Location     Type
		None
 Return value:  Size  Location     Type
                  1    wreg      void 
 Registers used:
		None
 Tracked objects:
		On entry : 
		On exit  : 
		Unchanged: 
 Data sizes:     COMRAM   BANK0   BANK1   BANK2   BANK3   BANK4   BANK5   BANK6   BANK7
      Params:         0       0       0       0       0       0       0       0       0
      Locals:         0       0       0       0       0       0       0       0       0
      Temps:          0       0       0       0       0       0       0       0       0
      Totals:         0       0       0       0       0       0       0       0       0
Total ram usage:        0 bytes
 Hardware stack levels used:    1
 Hardware stack levels required when called:    5
 This function calls:
		Nothing
 This function is called by:
		_Leer_Hora
		_Leer_Fecha_Completa
		_Configurar_Alarma
		_Apagar_Alarma
		_Dia_Actual
		_Decena_Dia_Actual
		_Unidad_Dia_Actual
		_Envio_Hora
		_Envio_Fecha
 This function uses a non-reentrant model


 *************** function _Activamos_INT2 *****************
 Defined at:
		line 161 in file "funciones_adicionales.c"
 Parameters:    Size  Location     Type
		None
 Auto vars:     Size  Location     Type
		None
 Return value:  Size  Location     Type
                  1    wreg      void 
 Registers used:
		None
 Tracked objects:
		On entry : 
		On exit  : 
		Unchanged: 
 Data sizes:     COMRAM   BANK0   BANK1   BANK2   BANK3   BANK4   BANK5   BANK6   BANK7
      Params:         0       0       0       0       0       0       0       0       0
      Locals:         0       0       0       0       0       0       0       0       0
      Temps:          0       0       0       0       0       0       0       0       0
      Totals:         0       0       0       0       0       0       0       0       0
Total ram usage:        0 bytes
 Hardware stack levels used:    1
 Hardware stack levels required when called:    5
 This function calls:
		Nothing
 This function is called by:
		_main
 This function uses a non-reentrant model


 *************** function _ISR *****************
 Defined at:
		line 101 in file "program_complete.c"
 Parameters:    Size  Location     Type
		None
 Auto vars:     Size  Location     Type
		None
 Return value:  Size  Location     Type
                  1    wreg      void 
 Registers used:
		wreg, fsr1l, fsr1h, fsr2l, fsr2h, status,2, status,0, tblptrl, tblptrh, tblptru, prodl, prodh, cstack
 Tracked objects:
		On entry : 
		On exit  : 
		Unchanged: 
 Data sizes:     COMRAM   BANK0   BANK1   BANK2   BANK3   BANK4   BANK5   BANK6   BANK7
      Params:         0       0       0       0       0       0       0       0       0
      Locals:         0       0       0       0       0       0       0       0       0
      Temps:         10       0       0       0       0       0       0       0       0
      Totals:        10       0       0       0       0       0       0       0       0
Total ram usage:       10 bytes
 Hardware stack levels used:    1
 Hardware stack levels required when called:    4
 This function calls:
		i2_Apagar_Alarma
		i2_memoria_segun_dias
 This function is called by:
		Interrupt level 2
 This function uses a non-reentrant model


 *************** function i2_memoria_segun_dias *****************
 Defined at:
		line 110 in file "funciones_adicionales.c"
 Parameters:    Size  Location     Type
		None
 Auto vars:     Size  Location     Type
  memoria_segu    2   63[COMRAM] int 
 Return value:  Size  Location     Type
                  2   59[COMRAM] int 
 Registers used:
		wreg, fsr1l, fsr1h, fsr2l, fsr2h, status,2, status,0, tblptrl, tblptrh, tblptru, prodl, prodh, cstack
 Tracked objects:
		On entry : 
		On exit  : 
		Unchanged: 
 Data sizes:     COMRAM   BANK0   BANK1   BANK2   BANK3   BANK4   BANK5   BANK6   BANK7
      Params:         2       0       0       0       0       0       0       0       0
      Locals:         4       0       0       0       0       0       0       0       0
      Temps:          0       0       0       0       0       0       0       0       0
      Totals:         6       0       0       0       0       0       0       0       0
Total ram usage:        6 bytes
 Hardware stack levels used:    1
 Hardware stack levels required when called:    3
 This function calls:
		i2_Dia_Actual
		i2___wmul
 This function is called by:
		_ISR
 This function uses a non-reentrant model


 *************** function i2_Dia_Actual *****************
 Defined at:
		line 120 in file "ds3231_funciones.c"
 Parameters:    Size  Location     Type
		None
 Auto vars:     Size  Location     Type
  Dia_Actual     16   41[COMRAM] unsigned char [16]
  Dia_Actual     16   25[COMRAM] unsigned char [16]
  Dia_Actual      2   57[COMRAM] int 
 Return value:  Size  Location     Type
                  2   22[COMRAM] int 
 Registers used:
		wreg, fsr1l, fsr1h, fsr2l, fsr2h, status,2, status,0, tblptrl, tblptrh, tblptru, prodl, prodh, cstack
 Tracked objects:
		On entry : 
		On exit  : 
		Unchanged: 
 Data sizes:     COMRAM   BANK0   BANK1   BANK2   BANK3   BANK4   BANK5   BANK6   BANK7
      Params:         2       0       0       0       0       0       0       0       0
      Locals:        34       0       0       0       0       0       0       0       0
      Temps:          1       0       0       0       0       0       0       0       0
      Totals:        37       0       0       0       0       0       0       0       0
Total ram usage:       37 bytes
 Hardware stack levels used:    1
 Hardware stack levels required when called:    2
 This function calls:
		i2_I2C_Nack
		i2_I2C_Restart
		i2_I2C_Rx
		i2_I2C_Start
		i2_I2C_Stop
		i2_I2C_Tx
		i2_atoi
		i2_concatenate
		i2_itoa
 This function is called by:
		i2_memoria_segun_dias
 This function uses a non-reentrant model


 *************** function i2_itoa *****************
 Defined at:
		line 14 in file "funciones_adicionales.c"
 Parameters:    Size  Location     Type
  value           2    8[COMRAM] int 
  result          2   10[COMRAM] PTR unsigned char 
		 -> i2Dia_Actual@cadena1_dia(16), i2Dia_Actual@cadena0_dia(16), Crear_Cadena@cadena1(20), Dia_Actual@cadena1_dia(16), 
		 -> Dia_Actual@cadena0_dia(16), 
  base            2   12[COMRAM] int 
 Auto vars:     Size  Location     Type
  itoa            2   19[COMRAM] PTR unsigned char 
		 -> i2Dia_Actual@cadena1_dia(16), i2Dia_Actual@cadena0_dia(16), Crear_Cadena@cadena1(20), Dia_Actual@cadena1_dia(16), 
		 -> Dia_Actual@cadena0_dia(16), 
  itoa            2   17[COMRAM] PTR unsigned char 
		 -> i2Dia_Actual@cadena1_dia(16), i2Dia_Actual@cadena0_dia(16), Crear_Cadena@cadena1(20), Dia_Actual@cadena1_dia(16), 
		 -> Dia_Actual@cadena0_dia(16), 
  itoa            2   15[COMRAM] int 
  itoa            1   14[COMRAM] unsigned char 
 Return value:  Size  Location     Type
                  2    8[COMRAM] PTR unsigned char 
 Registers used:
		wreg, fsr1l, fsr1h, fsr2l, fsr2h, status,2, status,0, tblptrl, tblptrh, tblptru, prodl, prodh, cstack
 Tracked objects:
		On entry : 
		On exit  : 
		Unchanged: 
 Data sizes:     COMRAM   BANK0   BANK1   BANK2   BANK3   BANK4   BANK5   BANK6   BANK7
      Params:         6       0       0       0       0       0       0       0       0
      Locals:         7       0       0       0       0       0       0       0       0
      Temps:          0       0       0       0       0       0       0       0       0
      Totals:        13       0       0       0       0       0       0       0       0
Total ram usage:       13 bytes
 Hardware stack levels used:    1
 Hardware stack levels required when called:    1
 This function calls:
		i2___awdiv
		i2___wmul
 This function is called by:
		i2_Dia_Actual
 This function uses a non-reentrant model


 *************** function i2___awdiv *****************
 Defined at:
		line 7 in file "C:\Program Files (x86)\Microchip\xc8\v2.00\pic\sources\c99\common\awdiv.c"
 Parameters:    Size  Location     Type
  dividend        2    0[COMRAM] int 
  divisor         2    2[COMRAM] int 
 Auto vars:     Size  Location     Type
  __awdiv         2    6[COMRAM] int 
  __awdiv         1    5[COMRAM] unsigned char 
  __awdiv         1    4[COMRAM] unsigned char 
 Return value:  Size  Location     Type
                  2    0[COMRAM] int 
 Registers used:
		wreg, status,2, status,0
 Tracked objects:
		On entry : 
		On exit  : 
		Unchanged: 
 Data sizes:     COMRAM   BANK0   BANK1   BANK2   BANK3   BANK4   BANK5   BANK6   BANK7
      Params:         4       0       0       0       0       0       0       0       0
      Locals:         4       0       0       0       0       0       0       0       0
      Temps:          0       0       0       0       0       0       0       0       0
      Totals:         8       0       0       0       0       0       0       0       0
Total ram usage:        8 bytes
 Hardware stack levels used:    1
 This function calls:
		Nothing
 This function is called by:
		i2_itoa
 This function uses a non-reentrant model


 *************** function i2_concatenate *****************
 Defined at:
		line 33 in file "funciones_adicionales.c"
 Parameters:    Size  Location     Type
  p               2    0[COMRAM] PTR unsigned char 
		 -> i2Dia_Actual@cadena0_dia(16), Crear_Cadena@cadena0(250), Dia_Actual@cadena0_dia(16), 
  q               2    2[COMRAM] PTR unsigned char 
		 -> i2Dia_Actual@cadena1_dia(16), STR_3(2), STR_2(2), Crear_Cadena@cadena1(20), 
		 -> Dia_Actual@cadena1_dia(16), 
 Auto vars:     Size  Location     Type
  concatenate     2    8[COMRAM] int 
  concatenate     2    6[COMRAM] int 
 Return value:  Size  Location     Type
                  1    wreg      void 
 Registers used:
		wreg, fsr1l, fsr1h, fsr2l, fsr2h, status,2, status,0, tblptrl, tblptrh, tblptru
 Tracked objects:
		On entry : 
		On exit  : 
		Unchanged: 
 Data sizes:     COMRAM   BANK0   BANK1   BANK2   BANK3   BANK4   BANK5   BANK6   BANK7
      Params:         4       0       0       0       0       0       0       0       0
      Locals:         4       0       0       0       0       0       0       0       0
      Temps:          2       0       0       0       0       0       0       0       0
      Totals:        10       0       0       0       0       0       0       0       0
Total ram usage:       10 bytes
 Hardware stack levels used:    1
 This function calls:
		Nothing
 This function is called by:
		i2_Dia_Actual
 This function uses a non-reentrant model


 *************** function i2_atoi *****************
 Defined at:
		line 4 in file "C:\Program Files (x86)\Microchip\xc8\v2.00\pic\sources\c99\common\atoi.c"
 Parameters:    Size  Location     Type
  s               2    7[COMRAM] PTR const unsigned char 
		 -> i2Dia_Actual@cadena0_dia(16), Dia_Actual@cadena0_dia(16), 
 Auto vars:     Size  Location     Type
  atoi            2   20[COMRAM] int 
  atoi            2   13[COMRAM] int 
 Return value:  Size  Location     Type
                  2    7[COMRAM] int 
 Registers used:
		wreg, fsr2l, fsr2h, status,2, status,0, prodl, prodh, cstack
 Tracked objects:
		On entry : 
		On exit  : 
		Unchanged: 
 Data sizes:     COMRAM   BANK0   BANK1   BANK2   BANK3   BANK4   BANK5   BANK6   BANK7
      Params:         2       0       0       0       0       0       0       0       0
      Locals:         9       0       0       0       0       0       0       0       0
      Temps:          4       0       0       0       0       0       0       0       0
      Totals:        15       0       0       0       0       0       0       0       0
Total ram usage:       15 bytes
 Hardware stack levels used:    1
 Hardware stack levels required when called:    1
 This function calls:
		i2___wmul
		i2_isdigit
		i2_isspace
 This function is called by:
		i2_Dia_Actual
 This function uses a non-reentrant model


 *************** function i2_isspace *****************
 Defined at:
		line 5 in file "C:\Program Files (x86)\Microchip\xc8\v2.00\pic\sources\c99\common\isspace.c"
 Parameters:    Size  Location     Type
  c               2    0[COMRAM] int 
 Auto vars:     Size  Location     Type
		None
 Return value:  Size  Location     Type
                  2    0[COMRAM] int 
 Registers used:
		wreg, status,2, status,0
 Tracked objects:
		On entry : 
		On exit  : 
		Unchanged: 
 Data sizes:     COMRAM   BANK0   BANK1   BANK2   BANK3   BANK4   BANK5   BANK6   BANK7
      Params:         2       0       0       0       0       0       0       0       0
      Locals:         1       0       0       0       0       0       0       0       0
      Temps:          4       0       0       0       0       0       0       0       0
      Totals:         7       0       0       0       0       0       0       0       0
Total ram usage:        7 bytes
 Hardware stack levels used:    1
 This function calls:
		Nothing
 This function is called by:
		i2_atoi
 This function uses a non-reentrant model


 *************** function i2_isdigit *****************
 Defined at:
		line 5 in file "C:\Program Files (x86)\Microchip\xc8\v2.00\pic\sources\c99\common\isdigit.c"
 Parameters:    Size  Location     Type
  c               2    0[COMRAM] int 
 Auto vars:     Size  Location     Type
		None
 Return value:  Size  Location     Type
                  2    0[COMRAM] int 
 Registers used:
		wreg, status,2, status,0
 Tracked objects:
		On entry : 
		On exit  : 
		Unchanged: 
 Data sizes:     COMRAM   BANK0   BANK1   BANK2   BANK3   BANK4   BANK5   BANK6   BANK7
      Params:         2       0       0       0       0       0       0       0       0
      Locals:         0       0       0       0       0       0       0       0       0
      Temps:          4       0       0       0       0       0       0       0       0
      Totals:         6       0       0       0       0       0       0       0       0
Total ram usage:        6 bytes
 Hardware stack levels used:    1
 This function calls:
		Nothing
 This function is called by:
		i2_atoi
 This function uses a non-reentrant model


 *************** function i2___wmul *****************
 Defined at:
		line 15 in file "C:\Program Files (x86)\Microchip\xc8\v2.00\pic\sources\c99\common\Umul16.c"
 Parameters:    Size  Location     Type
  multiplier      2    0[COMRAM] unsigned int 
  multiplicand    2    2[COMRAM] unsigned int 
 Auto vars:     Size  Location     Type
  __wmul          2    4[COMRAM] unsigned int 
 Return value:  Size  Location     Type
                  2    0[COMRAM] unsigned int 
 Registers used:
		wreg, status,2, status,0, prodl, prodh
 Tracked objects:
		On entry : 
		On exit  : 
		Unchanged: 
 Data sizes:     COMRAM   BANK0   BANK1   BANK2   BANK3   BANK4   BANK5   BANK6   BANK7
      Params:         4       0       0       0       0       0       0       0       0
      Locals:         2       0       0       0       0       0       0       0       0
      Temps:          0       0       0       0       0       0       0       0       0
      Totals:         6       0       0       0       0       0       0       0       0
Total ram usage:        6 bytes
 Hardware stack levels used:    1
 This function calls:
		Nothing
 This function is called by:
		i2_itoa
		i2_memoria_segun_dias
		i2_atoi
 This function uses a non-reentrant model


 *************** function i2_I2C_Rx *****************
 Defined at:
		line 57 in file "I2C_Libreria.c"
 Parameters:    Size  Location     Type
		None
 Auto vars:     Size  Location     Type
		None
 Return value:  Size  Location     Type
                  1    wreg      unsigned char 
 Registers used:
		wreg, status,2
 Tracked objects:
		On entry : 
		On exit  : 
		Unchanged: 
 Data sizes:     COMRAM   BANK0   BANK1   BANK2   BANK3   BANK4   BANK5   BANK6   BANK7
      Params:         0       0       0       0       0       0       0       0       0
      Locals:         0       0       0       0       0       0       0       0       0
      Temps:          0       0       0       0       0       0       0       0       0
      Totals:         0       0       0       0       0       0       0       0       0
Total ram usage:        0 bytes
 Hardware stack levels used:    1
 This function calls:
		Nothing
 This function is called by:
		i2_Dia_Actual
 This function uses a non-reentrant model


 *************** function i2_I2C_Restart *****************
 Defined at:
		line 32 in file "I2C_Libreria.c"
 Parameters:    Size  Location     Type
		None
 Auto vars:     Size  Location     Type
		None
 Return value:  Size  Location     Type
                  1    wreg      void 
 Registers used:
		None
 Tracked objects:
		On entry : 
		On exit  : 
		Unchanged: 
 Data sizes:     COMRAM   BANK0   BANK1   BANK2   BANK3   BANK4   BANK5   BANK6   BANK7
      Params:         0       0       0       0       0       0       0       0       0
      Locals:         0       0       0       0       0       0       0       0       0
      Temps:          0       0       0       0       0       0       0       0       0
      Totals:         0       0       0       0       0       0       0       0       0
Total ram usage:        0 bytes
 Hardware stack levels used:    1
 This function calls:
		Nothing
 This function is called by:
		i2_Dia_Actual
 This function uses a non-reentrant model


 *************** function i2_I2C_Nack *****************
 Defined at:
		line 44 in file "I2C_Libreria.c"
 Parameters:    Size  Location     Type
		None
 Auto vars:     Size  Location     Type
		None
 Return value:  Size  Location     Type
                  1    wreg      void 
 Registers used:
		None
 Tracked objects:
		On entry : 
		On exit  : 
		Unchanged: 
 Data sizes:     COMRAM   BANK0   BANK1   BANK2   BANK3   BANK4   BANK5   BANK6   BANK7
      Params:         0       0       0       0       0       0       0       0       0
      Locals:         0       0       0       0       0       0       0       0       0
      Temps:          0       0       0       0       0       0       0       0       0
      Totals:         0       0       0       0       0       0       0       0       0
Total ram usage:        0 bytes
 Hardware stack levels used:    1
 This function calls:
		Nothing
 This function is called by:
		i2_Dia_Actual
 This function uses a non-reentrant model


 *************** function i2_Apagar_Alarma *****************
 Defined at:
		line 112 in file "ds3231_funciones.c"
 Parameters:    Size  Location     Type
		None
 Auto vars:     Size  Location     Type
		None
 Return value:  Size  Location     Type
                  1    wreg      void 
 Registers used:
		wreg, cstack
 Tracked objects:
		On entry : 
		On exit  : 
		Unchanged: 
 Data sizes:     COMRAM   BANK0   BANK1   BANK2   BANK3   BANK4   BANK5   BANK6   BANK7
      Params:         0       0       0       0       0       0       0       0       0
      Locals:         0       0       0       0       0       0       0       0       0
      Temps:          0       0       0       0       0       0       0       0       0
      Totals:         0       0       0       0       0       0       0       0       0
Total ram usage:        0 bytes
 Hardware stack levels used:    1
 Hardware stack levels required when called:    1
 This function calls:
		i2_I2C_Start
		i2_I2C_Stop
		i2_I2C_Tx
 This function is called by:
		_ISR
 This function uses a non-reentrant model


 *************** function i2_I2C_Tx *****************
 Defined at:
		line 51 in file "I2C_Libreria.c"
 Parameters:    Size  Location     Type
  data            1    wreg     unsigned char 
 Auto vars:     Size  Location     Type
  data            1    0[COMRAM] unsigned char 
 Return value:  Size  Location     Type
                  1    wreg      void 
 Registers used:
		wreg
 Tracked objects:
		On entry : 
		On exit  : 
		Unchanged: 
 Data sizes:     COMRAM   BANK0   BANK1   BANK2   BANK3   BANK4   BANK5   BANK6   BANK7
      Params:         0       0       0       0       0       0       0       0       0
      Locals:         1       0       0       0       0       0       0       0       0
      Temps:          0       0       0       0       0       0       0       0       0
      Totals:         1       0       0       0       0       0       0       0       0
Total ram usage:        1 bytes
 Hardware stack levels used:    1
 This function calls:
		Nothing
 This function is called by:
		i2_Apagar_Alarma
		i2_Dia_Actual
 This function uses a non-reentrant model


 *************** function i2_I2C_Stop *****************
 Defined at:
		line 27 in file "I2C_Libreria.c"
 Parameters:    Size  Location     Type
		None
 Auto vars:     Size  Location     Type
		None
 Return value:  Size  Location     Type
                  1    wreg      void 
 Registers used:
		None
 Tracked objects:
		On entry : 
		On exit  : 
		Unchanged: 
 Data sizes:     COMRAM   BANK0   BANK1   BANK2   BANK3   BANK4   BANK5   BANK6   BANK7
      Params:         0       0       0       0       0       0       0       0       0
      Locals:         0       0       0       0       0       0       0       0       0
      Temps:          0       0       0       0       0       0       0       0       0
      Totals:         0       0       0       0       0       0       0       0       0
Total ram usage:        0 bytes
 Hardware stack levels used:    1
 This function calls:
		Nothing
 This function is called by:
		i2_Apagar_Alarma
		i2_Dia_Actual
 This function uses a non-reentrant model


 *************** function i2_I2C_Start *****************
 Defined at:
		line 22 in file "I2C_Libreria.c"
 Parameters:    Size  Location     Type
		None
 Auto vars:     Size  Location     Type
		None
 Return value:  Size  Location     Type
                  1    wreg      void 
 Registers used:
		None
 Tracked objects:
		On entry : 
		On exit  : 
		Unchanged: 
 Data sizes:     COMRAM   BANK0   BANK1   BANK2   BANK3   BANK4   BANK5   BANK6   BANK7
      Params:         0       0       0       0       0       0       0       0       0
      Locals:         0       0       0       0       0       0       0       0       0
      Temps:          0       0       0       0       0       0       0       0       0
      Totals:         0       0       0       0       0       0       0       0       0
Total ram usage:        0 bytes
 Hardware stack levels used:    1
 This function calls:
		Nothing
 This function is called by:
		i2_Apagar_Alarma
		i2_Dia_Actual
 This function uses a non-reentrant model



MODULE INFORMATION

Module		Function		Class		Link	Load	Size
C:\Program Files (x86)\Microchip\xc8\v2.00\pic\sources\c99\common\isspace.c
		_isspace       		CODE           	268E	0000	93

C:\Program Files (x86)\Microchip\xc8\v2.00\pic\sources\c99\common\isspace.c estimated size: 93

USART_lib.c
		_USART_Tx      		CODE           	2B5A	0000	33
		_USART_Cadena  		CODE           	29BE	0000	59
		_USART_Init    		CODE           	25B6	0000	119

USART_lib.c estimated size: 211

funciones_adicionales.c
		_Crear_Cadena  		CODE           	084E	0000	1473
		_Guardar_Datos 		CODE           	17FE	0000	325
		_Cambio_Dia    		CODE           	21F6	0000	151
		_memoria_segun_dias		CODE           	2946	0000	61
		_Cambio_de_Mes 		CODE           	26EA	0000	93
		_Activamos_INT2		CODE           	2CF6	0000	15
		_itoa          		CODE           	150E	0000	379
		_concatenate   		CODE           	1D4C	0000	225

funciones_adicionales.c estimated size: 2722

C:\Program Files (x86)\Microchip\xc8\v2.00\pic\sources\c99\common\awmod.c
		___awmod       		CODE           	1E2C	0000	219

C:\Program Files (x86)\Microchip\xc8\v2.00\pic\sources\c99\common\awmod.c estimated size: 219

program_complete.c
		_ISR           		CODE           	0008	0000	147
		_main          		CODE           	0E0E	0000	745

program_complete.c estimated size: 892

C:\Program Files (x86)\Microchip\xc8\v2.00\pic\sources\c99\common\isdigit.c
		_isdigit       		CODE           	2908	0000	63

C:\Program Files (x86)\Microchip\xc8\v2.00\pic\sources\c99\common\isdigit.c estimated size: 63

LCD_Libreria.c
		_LCD_Init      		CODE           	1FDE	0000	197
		_LCD_Comando   		CODE           	2534	0000	131
		_LCD_XY        		CODE           	2A32	0000	57
		_LCD_Data      		CODE           	2318	0000	139

LCD_Libreria.c estimated size: 524

EEPROM.c
		_EEPROM_Lectura		CODE           	2CE4	0000	19
		_EEPROM_Guardar		CODE           	2A6A	0000	53
		_Limpiar_EEPROM		CODE           	262C	0000	99

EEPROM.c estimated size: 171

C:\Program Files (x86)\Microchip\xc8\v2.00\pic\sources\c99\common\awdiv.c
		___awdiv       		CODE           	1B72	0000	239

C:\Program Files (x86)\Microchip\xc8\v2.00\pic\sources\c99\common\awdiv.c estimated size: 239

shared
		i2_I2C_Nack    		CODE           	2BD6	0000	31
		i2_atoi        		CODE           	1306	0000	521
		i2_I2C_Tx      		CODE           	2B7A	0000	33
		i2_isspace     		CODE           	2746	0000	91
		i2_isdigit     		CODE           	2982	0000	61
		i2_concatenate 		CODE           	1F06	0000	217
		i2___awdiv     		CODE           	1C60	0000	237
		i2___wmul      		CODE           	2ACA	0000	43
		i2_I2C_Stop    		CODE           	2CB0	0000	27
		i2_I2C_Start   		CODE           	2CCA	0000	27
		__initialization		CODE           	23A2	0000	121
		i2_Apagar_Alarma		CODE           	2C2C	0000	29
		i2_itoa        		CODE           	1688	0000	375
		i2_I2C_Rx      		CODE           	2B38	0000	35
		i2_Dia_Actual  		CODE           	2150	0000	167
		i2_I2C_Restart 		CODE           	2C96	0000	27
		i2_memoria_segun_dias		CODE           	29F8	0000	59

shared estimated size: 2101

C:\Program Files (x86)\Microchip\xc8\v2.00\pic\sources\c99\common\aldiv.c
		___aldiv       		CODE           	1942	0000	311

C:\Program Files (x86)\Microchip\xc8\v2.00\pic\sources\c99\common\aldiv.c estimated size: 311

C:\Program Files (x86)\Microchip\xc8\v2.00\pic\sources\c99\common\atoi.c
		_atoi          		CODE           	10F6	0000	529

C:\Program Files (x86)\Microchip\xc8\v2.00\pic\sources\c99\common\atoi.c estimated size: 529

I2C_Libreria.c
		_I2C_Rx        		CODE           	2AF4	0000	35
		_I2C_Stop      		CODE           	2C62	0000	27
		_I2C_Init      		CODE           	2BF4	0000	29
		_I2C_Tx        		CODE           	2B16	0000	35
		_I2C_Ack       		CODE           	2B9A	0000	31
		_I2C_Nack      		CODE           	2BB8	0000	31
		_I2C_Start     		CODE           	2C7C	0000	27
		_I2C_Restart   		CODE           	2C48	0000	27

I2C_Libreria.c estimated size: 242

C:\Program Files (x86)\Microchip\xc8\v2.00\pic\sources\c99\common\Umul16.c
		___wmul        		CODE           	2A9E	0000	45

C:\Program Files (x86)\Microchip\xc8\v2.00\pic\sources\c99\common\Umul16.c estimated size: 45

ds3231_funciones.c
		_Leer_Fecha_Completa		CODE           	28C4	0000	69
		_Unidad_Dia_Actual		CODE           	2838	0000	73
		_Dia_Actual    		CODE           	20A2	0000	175
		_Apagar_Alarma 		CODE           	2C10	0000	29
		_Mostrar_Hora  		CODE           	2428	0000	135
		_Leer_Hora     		CODE           	2880	0000	69
		_Mostrar_Fecha 		CODE           	24AE	0000	135
		_Decena_Dia_Actual		CODE           	27EE	0000	75
		_Configurar_Alarma		CODE           	27A0	0000	79

ds3231_funciones.c estimated size: 839

